:020000040800F2
:100000007018002001010008B724000871220008C0
:10001000B52400080D0A0008C73D000800000000D4
:100020000000000000000000000000007D27000824
:10003000B70A0008000000007B2700087F2700089F
:100040001B0100081B0100081B0100081B01000820
:100050001B0100081B0100081B0100081B01000810
:100060001B0100081B0100081B010008810A000891
:100070001B0100081B0100081B0100081B010008F0
:100080001B0100081B0100081B0100081B010008E0
:10009000513D00081B0100081B0100081B0100085E
:1000A0001B0100081B0100081B0100081B010008C0
:1000B0001B0100081B0100081B0100081B010008B0
:1000C0001B0100081B0100081B0100081B010008A0
:1000D0001B0100081B0100081B0100081B01000890
:1000E0001B0100081B0100081B010008DFF80CD0F1
:1000F00000F038FB004800473D470008701800201A
:100100000648804706480047FEE7FEE7FEE7FEE7B1
:10011000FEE7FEE7FEE7FEE7FEE7FEE7E927000869
:10012000ED000008202A04DB203A21FA02F0002129
:10013000704721FA02F3D040C2F1200291400843F7
:100140001946704740EA01039B0703D009E008C93C
:10015000121F08C0042AFAD203E011F8013B00F88C
:10016000013B521EF9D27047D2B201E000F8012BD8
:10017000491EFBD270470022F6E710B513460A4627
:1001800004461946FFF7F0FF204610BD421C10F848
:10019000011B0029FBD1801A7047F0B480EA0102EC
:1001A000D40F4200B2EB410F02D20246084611467C
:1001B0004A0042D0C30DDDB2C1F3C752AD1A202DA3
:1001C00035DAC1F3160141F4000204B15242C5F11F
:1001D000200602FA06F12A411044B3EBD05F23D087
:1001E000C4B1012DA0EBC35009DCF0BC4FF00042BC
:1001F00002EAC352DBB200F5000000F0CCB84000C8
:1002000000F1807000EBC350A0F1807040EAD17023
:10021000490009E0490841EAC071A0EBC35000F56C
:100220000000400800EBC350F0BC00F0ABB86142E6
:10023000012202EB4101001BF6E7F0BC704781F0A0
:100240000041AAE780F00040A7E730B480EA01024D
:1002500002F0004530F0004221F0004013D090B190
:10026000C30DD40DC2F31601C0F31600E41A41F415
:10027000000140F400027D34914201D3641C00E08F
:100280004900002C02DA30BC002070474FF4000017
:100290000023914201D3891A034340084FEA4101E8
:1002A000F7D151B1914202D14FF0004105E002D2A5
:1002B0004FF0010101E06FF0010103EBC45028444D
:1002C00030BC00F05FB896230022114600F063B8FE
:1002D00000F0004230F000400AD0C10D01F560711D
:1002E000C0F3160042EA0151C208400711437047AB
:1002F00000200146704730B50B4601460020202201
:10030000012409E021FA02F59D4205D303FA02F522
:10031000491B04FA02F52844151EA2F10102F1DC82
:1003200030BD2DE9F05F0546002092469B46884689
:100330000646814640241BE0284641464746224661
:10034000FFF7F0FE53465A46C01A914110D31146AA
:100350001846224600F018FA2D1A67EB01084F469E
:1003600022460120002100F00FFA17EB00094E4150
:10037000201EA4F10104DFDC484631462A464346EC
:10038000BDE8F09F0029A8BF7047401C490008BF86
:1003900020F00100704710B4B0FA80FC00FA0CF0B5
:1003A00050EA010404BF10BC704749B1CCF12004ED
:1003B00021FA04F411FA0CF118BF0121214308437A
:1003C000A3EB0C01CB1D4FEA00614FEA102042BFA6
:1003D000002010BC704700EBC35010440029A4BF9C
:1003E00010BC7047401C490008BF20F0010010BC41
:1003F00070472DE9FE4F804681EA0300C00F0C468E
:10040000009021F0004123F00045B8EB0200A94123
:1004100005D24046214690461C460B46024623F034
:100420000040104347D0270DC7F30A00C3F30A5119
:100430000290401A019040286BDAC3F3130040F495
:10044000801B0098924620B10023D2EB030A63EB95
:100450000B0B01985946C0F14002504600F094F948
:1004600006460D4650465946019A00F09CF910EB9D
:1004700008006141002487EA115284EAE7731A43B5
:1004800040D0009A62B3019A012A4FEA075215DC64
:10049000001B61EB02014FF0004202EA0752CDE976
:1004A0000042001C41F5801132462B4600F09CF9B9
:1004B00003B0BDE8F08F40462146F9E7001B61EB31
:1004C0000201001C41F5801300185B412018A2F5C1
:1004D000001747EB030140EAD570B6196D4111E0F2
:1004E0006D084FEA360645EAC0754FEA0752001B11
:1004F00061EB0201001C41F5801149084FEA300010
:100500000019514132462B4603B0BDE8F04F00F0D0
:100510005CB90098012240000023D0EB020263EB9B
:10052000E073009821464FEAE074B8EB000061EBFD
:100530000401E9E783F000435BE781F0004158E7FD
:100540002DE9FE4F81EA030404F0004421F000414C
:1005500000944FF0000B23F0004350EA01045ED0FA
:1005600052EA03045BD0C3F30A54C1F30A552C4486
:10057000A4F2F3340194A0FB0254C1F3130141F43B
:100580008011C3F3130343F4801301FB024400FB07
:10059000034E840A970A44EA815447EA8357A4FB2E
:1005A000076802958D0A05FB07854FEA932C04FB2B
:1005B0000C542705029D4FEA065847EA1637B5EB5B
:1005C00008056EEB070C870E920E47EA811742EA88
:1005D0008312A7FB0201B6EB0B0164EB00042B0DA9
:1005E00043EA0C335E1844EB1C50DA465146E7FBF5
:1005F0000201C5F313044FEA0B3343EA14534FEAE5
:100600000432019C43EA0603A4F10C040294009C0A
:10061000CDE900B400F0E8F803B0BDE8F08F0020A9
:100620000146F9E72DE9F04D81EA030404F0004B9F
:1006300021F0004514464FF0000A23F0004150EA33
:10064000050220D054EA01021DD0C5F30A57024624
:10065000C5F31303C1F31300C1F30A5640F4801528
:1006600043F48013A7EB0608101BD64608F2FD38AA
:1006700073EB050002D308F1010801E092185B4119
:10068000B8F1000F03DA00200146BDE8F08D00202C
:100690004FF48011064684460EE0171B73EB0507E6
:1006A00005D3121B63EB050306434CEA010C490812
:1006B0004FEA300092185B4150EA0107EDD152EA4F
:1006C000030012D082EA040083EA0501084305D042
:1006D000101BAB4106D20122002306E000224FF09E
:1006E000004302E06FF0010253101AEB06004CEBDE
:1006F000085110EB0A0041EB0B01BDE8F04D00F092
:1007000064B8C1F30A52C1F3130140F2FF3341F45C
:1007100080119A4202DA00200146704740F23343CA
:100720009A42A2F2334202DC5242FFF7FBBC00F0D5
:100730002BB8000030B5041E71F1000404DB4FF04B
:100740000044404264EB0101141E73F1000405DB18
:100750001C464FF00043524263EB0403994208BF2A
:10076000904230BD064C074D06E0E06840F00103C2
:1007700094E8070098471034AC42F6D3FFF7BAFC70
:1007800080480008A0480008202A04DB203A00FA2C
:1007900002F1002070479140C2F1200320FA03F3D8
:1007A000194390407047202A06DBCB17203A41FAC4
:1007B00002F043EAE07306E041FA02F3D040C2F1EE
:1007C0002002914008431946704710B5141E73F17A
:1007D000000408DA401C41F1000192185B411A4301
:1007E00001D120F0010010BD2DE9F04D92469B464D
:1007F00011B1B1FA81F202E0B0FA80F220329046F3
:10080000FFF7C2FF04460F4640EA0A0041EA0B0127
:1008100053465A46084313D0114653EA010019D0F3
:10082000C8F140025046FFF77DFC05460E46504693
:1008300059464246FFF7A8FF084305D0012004E0CF
:1008400020463946BDE8F08D0020054346EAE076B3
:100850002C4337430A986305E40AA0EB0800002202
:10086000FD0A44EA47540A3002D500200146E9E770
:10087000010510196941DDE9084500196941BDE824
:10088000F04DA2E770B58C1810F8015B15F0070366
:1008900001D110F8013B2A1106D110F8012B03E019
:1008A00010F8016B01F8016B5B1EF9D12B0705D421
:1008B0000023521E0DD401F8013BFAE710F8013B6A
:1008C000CB1A921C03E013F8015B01F8015B521E86
:1008D000F9D5A142D8D3002070BD000070B5044600
:1008E00000688168C943C9071CD1816821F00101F2
:1008F000816000F0CBFC05460FE000BF00F0C6FCB5
:10090000401B022809D9A06A40F01000A062E06AEA
:1009100040F00100E062012070BD20688068C043A3
:10092000C007EBD0002070BD10B50146406A826A56
:1009300012F0500F05D0006A026BBDE81040084667
:100940001047816A41F40071816201688968C1F3CE
:10095000424107290CD1017B51B9816A21F4807190
:100960008162816AC90403D4816A41F00101816214
:1009700000F022F910BD10B5406A816A41F04001D3
:100980008162C16A41F00401C16200F01CF910BD2E
:1009900010B5406A00F016F910BD0000F8B5002649
:1009A0000446009600688168C943C90728D0816859
:1009B00041F001018160134813490068B0FBF1F078
:1009C00000E0401E00900028FBD100F05FFC0546CF
:1009D00011E000BF00F05AFC401B02280BD9A06AAE
:1009E00040F01000A062E06A40F00100E06284F88C
:1009F00024600120F8BD20688068C043C007E9D1A9
:100A00000020F8BD7800002040420F00FEE70020E3
:100A1000704700207047000010B5002204490548C7
:100A200002F014F90449034802F00AF9002010BD4D
:100A3000841000204C0300209C0C002010B50146BF
:100A4000034802F0FDF8024802F0DEF8002010BD75
:100A50004C030020094A10B5D2F8B822D2F814226B
:100A60000AB1012010BD0A460146044802F0EEF822
:100A7000BDE81040014802F047B900004C030020D7
:100A8000014800F0FDB900000803002030B590F8DF
:100A900040500124AC40C56B6C60046863604368DF
:100AA000102B036803D099600068C26030BD9A6063
:100AB0000068C16030BD704770470000F8B5002481
:100AC000009490F824202546012A12D0012280F8B3
:100AD00024204A681F23072A0DD20668776B521E0E
:100AE00002EB820293409F430B6893401F4377635E
:100AF00019E00220F8BD06680D2A0AD2376BD21F12
:100B000002EB820293409F430B6893401F4337637D
:100B100009E0F76A0D3A02EB820293409F430B68AB
:100B200093401F43F7620A68072306680A2A0AD31C
:100B3000F7680A3A02EB420293409F438B68934066
:100B40001F43F76008E0376902EB420293409F437E
:100B50008B6893401F4337610A68102A01D0112A1D
:100B600020D1124B02689A4217D193681B0219D404
:100B7000936843F4000393600968102912D10C496B
:100B80000C4A0968B1FBF2F101EB8101490000E078
:100B9000491E00910029FBD104E0816A41F0200147
:100BA0008162012480F824502046F8BD00240140D1
:100BB0007800002040420F00014901200870704772
:100BC00000000020704770472DE9F0414FF000070A
:100BD00004003D467ED0A06A002628B9E66284F86B
:100BE0002460204600F07EF82046FFF777FEA16AD9
:100BF000C90600D420B1A06A40F01000A06269E0EC
:100C0000A16A21F4885141F00201A1626268E169A0
:100C1000237B0A4347EA43010A43A1684FF48077E4
:100C2000B94209D0012907D05FF0000194F814C03F
:100C3000BCF1010F02D00AE03946F7E7F3B1A36A2D
:100C400043F02003A362E36A43F00103E3622368F5
:100C5000D3F804C02CF4694C4CEA010CC3F804C06E
:100C600021688B68DFF870C003EA0C0313438B60C4
:100C7000A168B9420BD0012909D00CE0DFF85CC0B3
:100C8000A3690CEB43330B4343F40061DFE7218A94
:100C90000D05A5F580152168CB6A23F470032B435D
:100CA000CB62216889680E4B1940914208D1E662F7
:100CB000A16A21F0020141F00101A162BDE8F081C9
:100CC000A06A20F0020040F01000A062E06A40F04C
:100CD0000100E0620120F1E7FDF7E1FF00E0FFFF26
:100CE000FE0E1FFF70B586B00025064600950195E3
:100CF0000295039500681A4988422ED119498869DE
:100D000040F400708861886900F40070049088697C
:100D100040F0040088618869694600F0040004908E
:100D200002200090032001900F4800F0B9F9104C08
:100D30000E48C4E900058020C4E90250400020614B
:100D4000800060612020C4E90605204600F042F9D9
:100D500008B1FFF7B1FE3462666206B070BD0000F4
:100D60000024014000100240000801400800024039
:100D7000080300202DE9F047894604463B490068F6
:100D80003B4F0E1D9046884201D0B84207D13068D3
:100D900010F4702F03D001252846BDE8F08794F8A1
:100DA000240001280CD0012084F824002046FFF7FD
:100DB000F5FD05004FF0000004D084F82400EBE7B7
:100DC0000220EAE7A16A40F60162914341F4807192
:100DD000A1622168B94218D1326812F4702F14D080
:100DE000A16A41F48011A1623168490505D5A16A63
:100DF00021F4005141F48051A162A16AC9040AD5CD
:100E0000E16A21F00601E16206E0A26A22F48012A2
:100E1000A2624968E9E7E06284F82400216A154883
:100E20008862216A1448C862216A144808632168EC
:100E30006FF0020008602068816841F48071816071
:100E4000216843464A464C31206A00F0F1F8206898
:100E50008168C1F342410729816803D041F48011C0
:100E6000816099E741F4A001FAE700000024014005
:100E700000280140290900089109000877090008A5
:100E80002DE9F05FC16B0C6801680B68D0F840C0B9
:100E9000042202FA0CF2494DDFF824A1494E4A4FD0
:100EA000DFF828B1DFF828E122422CD05A072AD5F2
:100EB0000A68920603D40A6822F004020A600168F4
:100EC000A94201D1042219E0514501D1402215E087
:100ED000B14202D14FF4806210E0B94202D14FF426
:100EE00080420BE0594502D14FF4802206E0714563
:100EF00002D14FF4800201E04FF080622F4908399F
:100F00004A60C16A3BE04FF0020808FA0CF818EAA0
:100F1000040F4FF000094FF0010235D05FEA8378EB
:100F200032D50B689B0605D40B6823F00A030B60CF
:100F300080F821200168A94201D1022219E051451F
:100F400001D1202215E0B14202D14FF4007210E02D
:100F5000B94202D14FF400520BE0594502D14FF48F
:100F6000003206E0714502D14FF4001201E04FF06B
:100F70000072124908394A6080F82090816A00297D
:100F80001AD0BDE8F05F0847082505FA0CF52542A0
:100F900012D01B0710D50B6823F00E030B6090F8DE
:100FA0004010C36B02FA01F15960826380F821207E
:100FB00080F82090016BE2E7BDE8F09F0800024056
:100FC0001C00024030000240440002405800024031
:100FD0006C00024030B528B308C8134914221944E4
:100FE000B1FBF2F18900C1631049816302214177AD
:100FF0001A6843F6F0718A43D0E900142143D0E91E
:1010000002452C43214304692143446921438469F7
:101010002143114319600021416301224277017786
:10102000084630BD012030BDF8FFFDBF0000024082
:1010300070B5044690F82000002501280CD001204E
:1010400084F8200094F821600020012E06D084F856
:1010500020000225284670BD022070BD022684F8BB
:101060002160A0632068066826F00106066020461D
:10107000FFF70CFDE06A00282068016802D041F00B
:101080000E0106E021F0040101602068016841F0D2
:101090000A0101602068016841F001010160D9E79F
:1010A0002DE9F84FDFF8B891002409F1040A0AF19C
:1010B000040B23460F270BF1040EC9E00125A540C0
:1010C0002A40AA427DD1674ED1F804C0ACEB060895
:1010D000B44532D014DCBCF1030F3AD009DCBCF1CA
:1010E000000F2AD0BCF1010F1CD0BCF1020F31D18E
:1010F0001DE0BCF1110F17D0BCF1120F2AD119E07D
:10110000B8F5881F19D006DCB8F5803F15D0B8F5C2
:10111000801F1FD111E0B8F5001F0ED0B8F5041FD5
:1011200018D10AE0CB6815E0CB681B1D12E0CB6834
:1011300008330FE0CB680C330CE08B682BB1012B2C
:101140004FF0080303D0456104E0042302E0056189
:1011500000E00023FF2A01D8064601E000F1040662
:101160004FEA840501D9A5F12005D6F8008007FAD9
:1011700005FC28EA0C0803FA05F548EA0508C6F854
:1011800000804D68ED0062D5374DAE6946F001062E
:10119000AE61AD6924F0030605F001050095334DFD
:1011A00006EB050CDCF80850A607360F07FA06F820
:1011B00025EA0805DFF8B880404503D14FF0000864
:1011C00017E044E0DFF8AC80404502D14FF0010861
:1011D0000FE0DFF8A480404502D14FF0020808E09C
:1011E000DFF89880404502D14FF0030801E04FF04E
:1011F000040808FA06F848EA0508CCF808804D68A3
:10120000D9F80060ED034D4601D5164300E0964342
:101210002E604D68DAF80060AD03554601D51643DF
:1012200000E096432E604D68DBF80060ED025D46FD
:1012300001D5164300E096432E604D68DEF800604D
:10124000AD02754601D5164300E096432E60641C3E
:101250000D682A46E5407FF431AFBDE8F88F000005
:101260000004014000001110001002400000014085
:1012700000080140000C0140001001400014014032
:101280000AB1016170470904FBE70000014880686A
:10129000704700006C000020024881680278114409
:1012A000816070476C000020074810B5016841F06C
:1012B00010010160032000F075F8002000F006F82E
:1012C00000F024F8002010BD0020024070B50D4D44
:1012D00004464FF47A712878B1FBF0F00A490968A6
:1012E000B1FBF0F000F0C8FD48B9102C07D2002285
:1012F0002146501E00F036F800206C6070BD0120C1
:1013000070BD00006C000020780000200C4808B57B
:10131000816941F001018161816901F00101009160
:10132000C16941F08051C161C06900F080500090F6
:101330000448416821F0E06141F00071416008BD5E
:101340000010024000000140002809DB00F01F02ED
:10135000012191404009800000F1E020C0F8001117
:1013600070470000F0B40E4B1B680C46C3F3022319
:10137000C3F10705042D00D90425191D072901D241
:10138000002300E0DB1E012606FA05F1491E21407C
:1013900099409E40761E16403143F0BC02F03CBDA1
:1013A0000CED00E0064900F0070208684FF6FF0365
:1013B000184040EA0220034A1043086070470000CA
:1013C0000CED00E00000FA0510B50C0605D501F0A3
:1013D000070100EB4110283003E000EB411000F55D
:1013E000947099B232B1012202730181190C4181CA
:1013F000002010BD00220273C180F9E7704700EBA6
:101400004112D0F86802D26B01F02DBE00EB411200
:10141000D0F86802D2F83C2101F088BE70B50446CD
:101420000B0601F0070004EB40114FF001024FF0F2
:10143000000503D581F82920283103E081F82951DE
:1014400001F59471087094F82802012808D084F8F6
:101450002822206802F0AFFA84F82852002070BDDC
:10146000022070BD70B5044601F00F006268904222
:1014700001D9012070BD0B0601F0070004EB4011FB
:101480004FF001024FF0000503D581F829202831E3
:1014900003E081F8295101F594718D70087094F87A
:1014A0002802012808D084F82822206802F026FBB0
:1014B00084F82852002070BD022070BD01F00701A1
:1014C00000EB4110D0F8440170472DE9F04104468B
:1014D0000F0601F0070004EB40114FF001064FF03A
:1014E000000503D581F82960283103E081F82951EE
:1014F00001F5947108700A61CB704A7802B1C88115
:10150000022B00D10D7194F82802012809D084F82B
:101510002862206802F01AF9284684F82852BDE8AB
:10152000F0810220FBE770B50C4601F0070500EBE7
:101530004511C1E94F230022C1F8442181F8292136
:1015400081F8285101F594716207006802F02BFBC5
:10155000002070BD70B504460D4601F007006168BB
:10156000884201D9012070BD29064FF000064FF0D6
:10157000010205D504EB401181F82920283105E04E
:1015800004EB451181F8296101F594718A700870A6
:1015900094F82802012807D084F82822206802F055
:1015A000E9FA680702D006E0022070BD04F50C716C
:1015B000206802F0A1FA84F82862002070BD70B59E
:1015C0000C4601F0070500EB4511C1E90F2300228D
:1015D0004A64012281F8292001F8285F6207006827
:1015E00002F0E1FA002070BD10B50446006802F078
:1015F000B5FB000402D5204600F05EFF206802F033
:10160000ADFB40050CD5206830F8441F21F4806103
:101610000180204600F0FCF80021204600F013F97C
:10162000206802F09BFB400405D5206830F8441F79
:1016300021F480410180206802F090FB800405D5F0
:10164000206830F8441F21F400510180206802F026
:1016500085FBC00414D5206830F8401F21F0040138
:101660000180206830F8401F21F0080101802046E9
:1016700000F0E1F8206830F8441F21F48051018027
:10168000206802F06BFB00051FD5206830F8401F72
:1016900041F008010180206830F8441F21F4006106
:1016A0000180206830F8401F41F00401018020686B
:1016B00002F054FBC00405D5206830F8441F21F423
:1016C00080510180204600F0F3F8206802F046FBCC
:1016D000800508D5206830F8441F21F4007101808E
:1016E000204600F0ACF8206802F038FBC00505D5B4
:1016F000206830F8441F21F48071018010BD000083
:101700002DE9F04186B0040004D094F829020025A8
:1017100020B108E0012006B0BDE8F08184F828522D
:10172000204600F057F8032084F82902206802F0D0
:10173000DCF904F11001142288466846FEF702FD28
:1017400094E80F0002F035F90227B0BB00212068B1
:1017500002F01EFB002001260DE000BF04EB40114B
:1017600081F8296001F8280FC881CD700D614D61A5
:10177000401CC0B28D6161688142EFD800200FE04B
:1017800004EB401181F8295181F8280181F82B518F
:10179000C1F83851C1F83C51401CC0B2C1F84051A9
:1017A00061688142ECD8142241466846FEF7CAFCC3
:1017B00094E80F0002F08AF910B184F82972A9E7C1
:1017C00084F8245084F82962206802F07DF9002012
:1017D000A1E7000008B500680B49884212D10B4808
:1017E000C16941F40001C161C069002200F4000038
:1017F000009011461420FFF7B5FDBDE80840142005
:10180000FFF7A2BD08BD0000005C004000100240D0
:1018100070B5044680680125022801D0FFF74CF915
:101820002946D4F8680201F068FDD4F86802BDE8E2
:10183000704001F024BDD0F8680201F048BDD0F836
:10184000680201F04EBD10B5044690F82802012848
:101850000BD0012084F8280284F82410206802F0BC
:1018600099FA002084F8280210BD022010BDD0F89B
:10187000682200F50C71104601F04BBD10B504460E
:1018800090F82802012810D0012084F8280201468F
:101890002046FFF7B3FD206802F014F9206802F03B
:1018A00050FA002084F8280210BD022010BD00006C
:1018B00010B50446D0F8680201F06AFDA06900285E
:1018C00004D00348016841F00601016010BD00002A
:1018D00010ED00E02DE9F84305460078354CC007CF
:1018E00054D0E0690026C00008D4E06940F0805080
:1018F000E061E069012600F0805000902E48016808
:10190000C90512D40168804641F480710160FFF777
:10191000BDFC074605E000BFFFF7B8FCC01B64280C
:1019200023D8D8F80000C005F6D5206A10F440701E
:1019300021D0A98801F4407181421CD0206A1F493E
:10194000012220F440700A6000220A602062C00771
:1019500011D0FFF79BFC074641F2883808E000BF32
:10196000FFF794FCC11B414502D90320BDE8F88371
:10197000206A8007F4D5206A696820F44070084323
:1019800020621EB1E06920F08050E0612878800775
:1019900005D56068A96820F4404008436060287855
:1019A000C00605D56068E96820F4800008436060DF
:1019B0000020DBE70010024000700040400442427B
:1019C0002DE9F0470F46050061D0434E306800F026
:1019D0000700B84209D2306820F007003843306071
:1019E000306800F00700B84251D128683B4C8107AD
:1019F00012D5400703D5606840F4E0606060287845
:101A0000000703D5606840F4605060606068A968B2
:101A100020F0F000084360602878C00728D068688C
:101A2000012810D02168022810D0890700292EDA59
:101A3000616821F0030101436160FFF727FC8046E4
:101A400041F288390DE021688903EFE78901EDE76C
:101A5000FFF71CFCA0EB0801494502D90320BDE8B3
:101A6000F0876068696800F00C00B0EB810FEFD17F
:101A7000306800F00700B8420BD9306820F007004A
:101A800038433060306800F00700B84201D00120D0
:101A9000E5E72878400705D56068E96820F4E0604C
:101AA000084360602878000706D56068296920F43B
:101AB000605040EAC100606000F018F86168084AB0
:101AC000C1F30311515CC84006490860064800682C
:101AD000FFF7FCFB0020C2E700200240001002409C
:101AE00070480008780000207000002012A185B026
:101AF0000FC98DE80F0014A0144A006804905168C3
:101B0000134801F00C03042B10D0082B0ED1C1F3A5
:101B10008343C9031DF803000AD5516804AAC1F321
:101B20004041515C0A4A5043B0FBF1F005B07047A8
:101B300008494843FAE700000203040506070809BC
:101B40000A0B0C0D0E0F10100102000000100240D5
:101B500000127A0000093D002DE9F84F040070D012
:101B60002078C04DC00749D06868C0F381000128C3
:101B700007D06868C0F38100022809D16868C003F3
:101B800006D52868800339D560680028E7D035E09D
:101B90006068B0F5803F0BD010B1B0F5A02F11D028
:101BA000286820F480302860286820F4802002E033
:101BB000286840F480302860606890B1FFF766FBC9
:101BC00006460AE0286840F480202860F0E700BF5D
:101BD000FFF75CFB801B642873D828688003F7D567
:101BE0000CE0FFF753FB064605E000BFFFF74EFB96
:101BF000801B6428F0D828688003F7D420789A4E98
:101C000080074FF001094FF0000839D5686810F0DF
:101C10000C0F07D06868C0F38100022809D16868FA
:101C2000C00306D42868800714D52069012808D18C
:101C300010E02069B0B1C6F80090FFF727FB074617
:101C400005E00AE1FFF722FBC01B0228C4D8286880
:101C50008007F7D52868616920F0F80040EAC100E4
:101C600028600DE0C6F80080FFF710FB074604E08F
:101C7000FFF70CFBC01B022823D828688007F7D485
:101C8000207800072CD57948A169D9B1C0F8009017
:101C9000FFF7FCFA074604E0FFF7F8FAC01B02283A
:101CA0000FD8686A8007F7D571484FF4FA51006879
:101CB000B0FBF1F0009000BF0098411E0091FAD2F5
:101CC0000EE080E0C0F80080FFF7E0FA074604E08D
:101CD000FFF7DCFAC01B022875D8686A8007F7D4C2
:101CE0002078400760D5E8690027C00008D4E8697B
:101CF00040F08050E861E869012700F080500090D2
:101D00005C480168C90513D40168834641F48071B9
:101D10000160FFF7BBFA824606E000BFFFF7B6FAA4
:101D2000A0EB0A0064284ED8DBF80000C005F5D50A
:101D3000E06801280AD008B1052813D0286A20F0ED
:101D400001002862286A20F0040002E0286A40F0BE
:101D500001002862E06841F2883B98B1FFF796FAEB
:101D600082460BE0286A40F004002862EEE700BFDC
:101D7000FFF78CFAA0EB0A0159455AD8286A800768
:101D8000F6D50CE0FFF782FA824605E0FFF77EFA0F
:101D9000A0EB0A0159454CD8286A8007F6D41FB138
:101DA000E86920F08050E861E06988B36968C1F3B0
:101DB0008101022944D00228C6F8608004D0FFF7D0
:101DC00065FA044638E034E0FFF760FA074604E0BD
:101DD000FFF75CFAC01B02282BD828688001F7D4D3
:101DE000206AB0F5803F05D16868A16820F4003012
:101DF00008436860D4E908010843696821F4741154
:101E000008436860C6F86090FFF740FA044606E0B1
:101E100025E000BFFFF73AFA001B022809D828681E
:101E20008001F7D51BE000BFFFF730FA001B022846
:101E300002D90320BDE8F88F28688001F4D40EE0B1
:101E40000128F7D06868226A00F48031914204D1F9
:101E5000616A00F47010884201D00120EAE7002096
:101E6000E8E70000001002400000424280044242C5
:101E7000780000200070004010B5401EB0F1807F57
:101E800001D3012010BD4FF0E02460610F216017E5
:101E900001F0C2FF0020A06107202061002010BDDA
:101EA00070B590F83C20012A19D0012400F83C4F6D
:101EB0000222427050F83C3C5A689D6822F070063D
:101EC0000A684968324325F0800529435A6050F872
:101ED0003C2C9160447000210170084670BD0220C6
:101EE00070BD10B5040003D094F83D0010B107E0B8
:101EF000012010BD002084F83C00204600F00CF8C2
:101F0000022084F83D00211D206800F091FC012092
:101F100084F83D00002010BD08B50C4A01680C484B
:101F2000914207D1C16941F00201C161C06900F06D
:101F3000020009E0074A914207D1C16941F004015A
:101F4000C161C06900F00400009008BD00040040B9
:101F50000010024000080040022180F83D10016896
:101F60008A6802F00702062A03D00A6842F00102DA
:101F70000A60012180F83D100020704770B50446CA
:101F800090F83C00012817D0012584F83C5002202D
:101F900084F83D002068826822F0770222F47F42B4
:101FA00082600868502830D00DDC20284DD005DC38
:101FB00098B310283BD148E0022070BD302844D0AF
:101FC000402834D139E0602828D0702806D0B0F5F8
:101FD000805F2CD0B0F5005F29D10AE0CB68D1E951
:101FE0000121206800F067FC2068816841F07701DA
:101FF00009E0CB68D1E90121206800F05CFC206891
:10200000816841F48041816011E0CA6849682068B4
:1020100000F006FD5021206807E016E0CA68496814
:10202000206800F00EFD6021206800F04EFC84F86E
:102030003D50002084F83C0070BDCA6849682068A3
:1020400000F0EEFC40212068EFE7226801461046D0
:10205000EBE7000000B585B00021009101910291ED
:10206000039100680B49884211D10B48816941F006
:10207000080181618069694600F0080004904020F1
:1020800000900220019003900448FFF709F805B082
:1020900000BD00000008004000100240000C01409C
:1020A00070B5044690F83C0001280DD0012584F855
:1020B0003C50022084F83D0042B1042A0AD0082A8C
:1020C0000CD00C2A11D10DE0022070BD206800F068
:1020D00005FC0AE0206800F029FC06E0206800F01A
:1020E00051FC02E0206800F079FC84F83D500020AB
:1020F00084F83C0070BD10B5040003D094F83D0096
:1021000010B107E0012010BD002084F83C002046FB
:1021100000F00CF8022084F83D00211D206800F03A
:1021200087FB012084F83D00002010BD704770B58A
:10213000044690F83C000D4601280DD0012684F895
:102140003C60022084F83D0042B1042A18D0082ADD
:102150002AD00C2A4DD139E0022070BD206800F051
:10216000BDFB2068816941F00801816120688169B7
:1021700021F004018161206881692A69114311E01D
:10218000206800F0D3FB2068816941F4006181611F
:102190002068816921F480618161206881692A69F0
:1021A00041EA0221816124E0206800F0EBFB206815
:1021B000C16941F00801C1612068C16921F00401D1
:1021C000C1612068C1692A69114311E0206800F0EB
:1021D00005FC2068C16941F40061C1612068C169E2
:1021E00021F48061C1612068C1692A6941EA022144
:1021F000C16184F83D60002084F83C0070BD10B5DA
:10220000040003D094F83D0010B107E0012010BD98
:10221000002084F83C00204600F00CF8022084F8EE
:102220003D00211D206800F003FB012084F83D00E3
:10223000002010BD7047000010B504460068012260
:1022400000F02CFB09492068884203D1416C41F41D
:10225000004141642068816801F00701062903D02C
:10226000016841F001010160002010BD002C014017
:10227000FEE70000F0B500230A24302537261F466C
:1022800011E000BFB4EB107F02D905EB107C01E038
:1022900006EB107C01F813C001EB430C00015B1C42
:1022A0008CF80170DBB29342ECD3F0BD3EB5002157
:1022B0000D48009101910B4A029102608160017307
:1022C000017501244FF400220461C2614160FEF7F0
:1022D0007BFC05200094CDE9014069460248FEF7E9
:1022E000EDFB3EBD002401409001002070B586B09A
:1022F00000241C480094019402940394816941F0E5
:1023000010018161816901F010010491816941F03E
:1023100020018161816901F020010491816941F00E
:1023200004018161816901F004010491816941F036
:102330000801816180690C4E00F008004FF40055DF
:102340000490002229463046FEF79AFF01200095AE
:10235000CDE901040220039069463046FEF7A0FE55
:1023600006B070BD001002400010014010B58EB0E4
:1023700000240794089409940A940B941C2168463D
:102380000C94FDF7F8FE1548134901604FF4F07105
:10239000C0E901140A21C0E903148461FFF7A1FD1B
:1023A0004FF48050079007A90C48FFF7E7FD0B4852
:1023B000FFF7A1FE2020CDE90B040BA90748FFF78A
:1023C0006FFD0094019402940C2269460348049422
:1023D000FFF766FE0EB010BD00040040C0010020F3
:1023E00010B58EB000240794089409940A940B94B5
:1023F0001C2168460C94FDF7BEFE18481649016082
:102400004FF4F071C0E9011440F6FF71C0E9031404
:102410008461FFF766FD4FF48050079007A90F48CD
:10242000FFF7ACFD0D48FFF7EAFE0B940BA90B4834
:102430000C94FFF735FD6020CDE9000404200490E2
:102440000022694602940548FFF771FE0348FFF732
:1024500001FE0EB010BD0000000800400002002088
:1024600010B500220F49104800F0D6FD08B1FEF764
:1024700023FB0E490C4800F0B1FF08B1FEF71CFB2E
:102480000B49094800F0D4FB08B1FEF715FB0648DC
:1024900000F0FAFF002803D0BDE81040FEF70CBBA7
:1024A00010BD00000C0000204C030020580100204B
:1024B0005C000020FEE770472DE9F05F044648F617
:1024C0000F7B4FF0020A4FF480684AE1B0F84410E5
:1024D00011F00F0629D030F82670390479D530F87C
:1024E000261040F68F72114041F0800120F826102E
:1024F00004EB461595F8340105F59475002820681D
:1025000068D0297830F8212052047DD5B0F85020C9
:102510000AEBC1010A4408EB4201415AC1F3090127
:102520005FEA010971D02A89D2E0C9062DD4018859
:1025300001EA0B0141F400410180206804F1280503
:10254000B0F850202B780AEBC3010A4408EB420193
:10255000405AC0F309006064E16B0844E063002165
:102560002046FEF74CFF94F824000028ADD0A8695F
:102570000028AAD194F82400216840F08000A1F836
:102580004C00002084F82400EBE0018804F59475E9
:102590000A0520D5B0F850202B78062101EBC301A5
:1025A0000A4408EB4201405A04F50C71C0F30903D8
:1025B000EB61EA88206801F0D5FB2068018840F6CD
:1025C0008F72114041F0800101802046FFF74FF9E2
:1025D000C7E0A2E058E0090455D5018840F68F72A3
:1025E000114041F0800101802168B1F850202B7822
:1025F000062000EBC300024408EB4200085A8305A2
:102600009B0DEB6110D001E053E065E0696959B1C1
:10261000EA88206801F0A6FBE969686908446861F6
:1026200000212046FEF7F2FE2068B0F85010084462
:10263000296900F20C4051B13E2910D84A08C90757
:1026400000D0521C4FF6FF7101EA82210FE0018891
:1026500021F4F8410180018841F4004107E04A0972
:10266000C90600D1521E4FF4004141EA8221018087
:10267000206801884BF68F72114081F4405148F276
:102680008002114301806CE0B0F850202B780621C5
:1026900001EBC3010A4408EB4201415AC1F30901AD
:1026A0005FEA010924D0EA884B46696901F05AFBC8
:1026B0001EE0B0F85030062202EBC1015A1808EBB8
:1026C0004201415AC1F309015FEA010904D06A8954
:1026D0004B46696901F046FB2878226832F82010E1
:1026E00048F68F73194048F2C003194322F82010AE
:1026F000E8694844E861686900EB09026A61AB690E
:1027000013B12869484504D929782046FEF77EFE92
:1027100003E029782046FEF706FF380621D5216818
:1027200004EB461031F8262002EA0B0242F4004284
:1027300021F826202168B1F8505010F8282F0AEB14
:10274000C2022A4408EB4202895AC1F30901C1615D
:1027500042690A44426101788369204653B1FEF719
:102760002EFF2068B0F8441009043FF5AFAE0020FA
:10277000BDE8F09FFEF743FEF3E770477047FEF7B2
:102780008BBD30B593B028216846FDF7F4FC1421C9
:102790000AA8FDF7F0FC002401200F941094119476
:1027A000010412948DE8130004900005CDE908108F
:1027B000022507956846FFF7CFF90F20CDE90A05F6
:1027C0006802CDE90C4001210AA80E94FFF7F8F841
:1027D00012200F9068031190000212900FA8FFF7CB
:1027E00079F813B030BD00000D48016841F00101D7
:1027F000016041680B4A1140416001680A4A11407A
:102800000160016821F480210160416821F4FE012A
:1028100041604FF41F0181600449C00308607047A4
:10282000001002400000FFF8FFFFF6FE08ED00E098
:10283000F0B50268164B174C174D4FF08047984281
:1028400005D0B84203D0A04201D0A84203D122F063
:1028500070064A683243984205D0B84203D0A0427D
:1028600001D0A84203D122F44074CA6822434C69C3
:1028700022F08002224302608A68C2620A68826291
:10288000984201D10969016301214161F0BD000055
:10289000002C0140000400400008004010B501F089
:1028A0001F030121046A99408C430462016A9A4023
:1028B0001143016210BD10B5846842EA032224F47A
:1028C0007F440A432243826010BD826822F0700276
:1028D0000A4342F0070181607047000030B5026A88
:1028E00022F001020262026A4368846924F07305DF
:1028F0000C682C4322F002058A682A430A4DA8423C
:102900000BD122F00805CA6823F440732A434D69AD
:1029100022F004021D438B692B43436084614968A4
:102920004163026230BD0000002C014030B5026AF4
:1029300022F010020262026A436884690D6824F47E
:10294000E64444EA05248D6822F0200242EA05129A
:102950000B4DA8420ED1CD6822F0800242EA05124A
:102960004D6923F4406343EA85038D6922F04002F8
:1029700043EA85034360846149688163026230BD34
:10298000002C014030B5026A22F480720262036AB0
:102990004268C46923F4007324F073050C682C4367
:1029A0008D6843EA05230C4DA8420ED1CD6823F46F
:1029B000006343EA05234D6922F4405242EA0512BE
:1029C0008D6923F4806342EA05124260C46149685C
:1029D000C163036230BD0000002C014030B5026AC3
:1029E00022F480520262046A4268C3690D6823F4CB
:1029F000E64343EA05238D6824F4005444EA053491
:102A0000064DA84204D14D6922F4804242EA851263
:102A10004260C36149680164046230BD002C01401A
:102A200010B5036A046A24F001040462846924F086
:102A3000F00444EA021423F00A020A4384610262A9
:102A400010BD10B5036A23F0100303628369046AA2
:102A500023F4704343EA023224F0A00343EA011155
:102A60008261016210BD2DE9F041D0F8C032D0F88A
:102A7000B822CAB101EB810400EB84040025E669A9
:102A80003EB103EB41139B6BB6FBF3F703FB1763FC
:102A900023B1C2F814520020BDE8F08100231A4689
:102AA000E56100F07EFCF6E70220F5E770B505462B
:102AB000D0F8B84200F07BFBC4F80C02D5F8B8029D
:102AC00048B1D5F8BC12D4F80402CA6804F5037101
:102AD0009047002070BD022070BD70B504460026EE
:102AE000812100F0B7FA002501212046E56200F0BF
:102AF000B1FA82212046C4F86C5100F0ABFA25648B
:102B0000D4F8B80248B1D4F8BC0204F52E74406879
:102B10008047206800F015FE2560304670BD10B576
:102B2000D0E9AE4159B194F80002FF2807D08B6874
:102B300094F8012221469847FF2084F800020020E3
:102B400010BD00000A21018000487047800000206D
:102B50004321018000487047D000002043210180BC
:102B6000004870478C0000204321018000487047D6
:102B7000140100202DE9F04104460026007C4FF4AA
:102B80000077012590B3402302228121204600F0E6
:102B900061FB4023E56202220121204600F05AFB3E
:102BA0000823032282212046C4F86C5100F052FB16
:102BB0004FF40770256400F0C5FDC4F8B802F8B101
:102BC0000546D4F8BC02006880470020C5F814020E
:102BD000C5F81802207CD5F8042298B140230121C1
:102BE000204600F043FB3046BDE8F081FFE73B465E
:102BF00002228121204600F02DFB3B46E562CAE718
:102C00000126F0E73B46EAE710B5D0F8B81269B103
:102C1000027C002AD1F8042205D04023012100F0D3
:102C200025FB002010BD4FF40073F7E7022010BD14
:102C300002460220002902D00020C2F8BC127047D0
:102C4000D0F8B802C0F8041200207047D0F8B802DB
:102C5000C0F81022C0F80812002070472DE9FC418E
:102C60000546D0F8B87200208DF80000ADF80400D9
:102C7000064608780C4610F0600121D020293BD18F
:102C8000E288AAB10006607807D5D5F8BC128B6837
:102C900039469847E288394626E087F80002A0794D
:102CA00087F80102E2883946284600F06AF828E0F1
:102CB000D5F8BC12607800228B682146984720E046
:102CC000607820B10A2809D00B2815D110E095F8BA
:102CD0009C02032810D1022201A905E095F89C026C
:102CE000032809D101226946284600F064F808E06B
:102CF00095F89C02032804D02146284600F036F8B7
:102D000002263046BDE8FC8110B5D0F8B812A1B15A
:102D1000D1F814220AB1012010BD0122C1F81422F9
:102D2000D1F810220263B1F8102293B2D1F8082230
:102D3000812100F036FB002010BD022010BD10B52F
:102D4000D0F8B42252689047002010BD134610B549
:102D50000A46002100F08AFA002010BD134610B583
:102D60000A46002100F01DFB002010BD10B50446EE
:102D7000802100F0FBFA2046BDE81040002100F061
:102D8000F5BA10B50323C0F85C21C0F89432C0F83E
:102D9000602113460A46002100F068FA002010BDA9
:102DA00010B505210023C0F894121A46194600F008
:102DB0005DFA002010BD10B50223C261C0F8943244
:102DC000026213460A46002100F0EBFA002010BD13
:102DD00010B504210023C0F894121A46194600F0D9
:102DE000E0FA002010BD000010B50A46024903A019
:102DF00000F0E2F8004810BD9C0A00204344432044
:102E0000436F6E66696700001220088000487047B3
:102E10002C00002010B50A46024903A000F0CCF8AF
:102E2000004810BD9C0A002043444320496E74654D
:102E300072666163650000000420088000487047E6
:102E40002800002010B50A46024903A000F0B4F89B
:102E5000004810BD9C0A002053544D6963726F6591
:102E60006C656374726F6E696373000010B50A4617
:102E7000024903A000F0A0F8004810BD9C0A002001
:102E800053544D3332205669727475616C20436F10
:102E90006D506F727400000010B51A2008800A4847
:102EA0000168001D0468001D0068081809D0082288
:102EB0000649FFF7DFF90549042210312046FFF7E4
:102EC000D9F90248801E10BDE8F7FF1F420000201C
:102ED000F8B504460020ADF8000048880D46010A08
:102EE000082948D2DFE801F04704091747473C4565
:102EF000D4F8B012207C0A6819E0207C0226002851
:102F0000D4F8B40205D0C16A6846884701464670C5
:102F10003EE0816AF8E7C0B206282CD2DFE800F074
:102F2000030A1014181CD4F8B002426805E0694680
:102F300090471CE0D4F8B0028268E2B1207CF6E74A
:102F4000D4F8B002C268F8E7D4F8B0020269F4E736
:102F5000D4F8B0024269F0E7D4F8B0028269ECE735
:102F6000207C40B9D4F8B402416B684688470146DA
:102F70000EE0207C20B129462046FFF7F7FEF8BD81
:102F8000D4F8B402016B68468847014607204870B0
:102F9000BDF8000048B1EA8852B1824200D9024629
:102FA000ADF800202046FFF706FFE8880028E6D1AC
:102FB0002046FFF70DFFF8BD70B5002300281ED096
:102FC0000446002502E06D1CEDB2641C2678002E3C
:102FD000F9D1022404EB450414801278CA545B1C16
:102FE0000322CA5400245B1C06E0CA545B1CDAB2FC
:102FF0008C54521CD3B2401C0278002AF5D170BD0B
:1030000001004FF0000004D0012901D0022901D0B5
:10301000022070470120704710B580B1D0F8B4325B
:1030200013B10023C0F8B43209B1C0F8B0120121C5
:1030300080F89C12027000F0BFF8002010BD022042
:1030400010BD10B5D0F8C002FEF70CFABDE8104074
:10305000FFF7D6BF10B5D0F8C002FEF7DFF9BDE824
:103060001040FFF7CDBF2DE9F0411746044651B19E
:10307000D4F8B40242691AB194F89C02032851D0E2
:103080000220BDE8F081D4F89432002504F1140048
:10309000022B03D0042B3AD0C3B33CE0D0E9036346
:1030A0009E4207D9F11AC1608AB239462046FFF71D
:1030B00055FE12E08068B0FBF3F103FB110199B9F2
:1030C000984211D3D4F8981288420DD200221146AA
:1030D0002046FFF743FEC4F8985200231A461946CB
:1030E000204600F0C3F816E0D4F8B402C16829B154
:1030F00094F89C02032801D120468847802120466D
:1031000000F034F92046FFF74BFE04E0FFE7802192
:10311000204600F02BF994F8A002012804D184F88D
:10312000A05201E0204690470020AAE770B515465E
:10313000044649B1D4F8B40282691AB194F89C02E9
:10314000032830D0022070BDD4F8941204F5AA7080
:10315000032902D005291ED027E0D0E903218A42A5
:103160000BD9531AC3600846834200D303469AB270
:1031700029462046FFF7EAFD17E0D4F8B4020169BA
:1031800029B194F89C02032801D1204688472046A3
:10319000FFF71EFE09E000200146C4F89402204615
:1031A00000F0E4F801E020469047002070BDD0F820
:1031B000C002FEF783B9000010B504461C481D4943
:1031C000C0F86842C4F8C0020160082141600221D1
:1031D000816000218161C1610162FEF791FA08B14D
:1031E000FDF76AFC0022D4F8C0021823114604F54A
:1031F0003074FEF7E9F85823002280212068FEF79A
:10320000E3F8C023002281212068FEF7DDF84FF4A7
:103210008873002201212068FEF7D6F84FF48073EE
:10322000002282212068FEF7CFF8002010BD0000A8
:1032300030080020005C00400A06D0F8C00201F00F
:103240007F0100EB411002D590F82A00704790F8FA
:103250002A01704710B51C461346D0F8C00222461A
:10326000FEF733F9BDE81040FFF7CABE10B5D0F83D
:10327000C002FEF758F9BDE81040FFF7C1BE70B5B7
:103280000022044640231146FFF7E4FF40260125B3
:10329000C4F864613346002280212046C4F85851A6
:1032A000FFF7D8FF6662A56184F89C520020C4F83D
:1032B00094026060C4F8A402D4F8B80228B1D4F82B
:1032C000B4020021426820469047002070BD90F86B
:1032D0009C12042903D190F89D1280F89C120020C2
:1032E000704710B590F89C12032904D1D0F8B4129D
:1032F000C96901B18847002010BD017400207047E2
:1033000010B5D0F8C002FEF79EFABDE81040FFF7F6
:1033100077BE70B5044600F52A70054600F04AF8FD
:103320000120C4F89402B4F8AE02C4F8980294F8EC
:10333000A80210F01F010AD001290DD0022910D0D7
:1033400000F08001204600F011F8002070BD2946F1
:10335000204600F09EF8F8E72946204600F0CAF91A
:10336000F3E72946204600F01DF9EEE710B5D0F846
:10337000C002FEF7EFF8BDE81040FFF741BE10B500
:10338000D0F8C002FEF77AFABDE81040FFF738BE69
:1033900090F89C1280F89D12042180F89C12002065
:1033A000704710B5D0F8C002FEF709F9BDE810402B
:1033B000FFF726BE0A7802704A7842708A78CB7886
:1033C00002EB032242800A794B7902EB03228280CE
:1033D0008A79C97902EB0121C18070470246002039
:1033E00011B1C2F8B41270470220704710B5D0F87E
:1033F000B42202241AB11268904700B90024204672
:1034000010BD000070B50E461E4D89780446297027
:10341000012931D894F89C0202280BD003280FD040
:1034200031462046FFF7A2FC29782046BDE87040CF
:10343000FFF785BCD9B10320616084F89C0209E0E4
:1034400071B16068884212D0C1B22046FFF777FCA4
:10345000297861602046FFF7C9FF02280CD006E0FA
:10346000022084F89C0220466160FFF768FC204639
:10347000BDE87040FFF7ACBC31462046BDE8704067
:10348000FFF774BC7C00002010B5FFF778FF002028
:1034900010BD2DE9F0410A78002612F0600208D034
:1034A000202A01D0402A70D1D0F8B42292689047E7
:1034B0006DE04B78002201250A2B66D2DFE803F08D
:1034C000405D6557650805652C29FFF701FD5EE045
:1034D00004468888D8B9C888C8B94888802816D2D0
:1034E00000F07F0794F89C02032810D084F89E72A5
:1034F00039462046FFF704FF2046FFF769FC1FB15D
:10350000022084F89C0242E084F89C523FE020466E
:103510003BE0FFF777FF3AE0CB88012B35D190F8FD
:103520009C32012B04D0022B02D0032B2DD104E0BE
:103530008260012200F1080116E00122011D13E062
:1035400090F89C22012A03D0022A01D0032A1CD120
:10355000CA88022A19D1C560D0F8A41209B1032182
:10356000C160022200F10C01FFF725FC0FE0498841
:1035700001290CD1C0F8A45211E090F89C32012B23
:1035800008D0022B06D0032B04D0FFF7EFFB304608
:10359000BDE8F08149880129F9D1C0F8A422FFF7DC
:1035A00017FCF4E72DE9F0410A460446107800279D
:1035B000097910F060030AD0202B01D0402B50D1A4
:1035C000D4F8B40211468368204698478FE0C0F3D0
:1035D0004110012806D05078D0B301282AD0032802
:1035E0003FD107E0D4F8B402114683682046BDE815
:1035F000F041184794F89C02022802D0032872D1A7
:103600000AE071B380296ED02046FFF7AFFE80211B
:103610002046FFF7ABFE6AE0508838B931B1802907
:1036200004D0D08810B92046FFF7A0FE2046FFF74F
:10363000CFFB5CE094F89C020228E2D0032852D130
:10364000508898BB4806F1D02046FFF7FAFCEDE71A
:10365000FFE794F89C020026022803D0032842D1F9
:1036600012E040E009B180293DD1080601F07F0059
:1036700000EB800004EB800101D5143101E001F57D
:10368000AA7102220E602AE0080601F00F0000EB8A
:10369000800004EB80000AD5806920B301F07F0030
:1036A00000EB800004EB800514350BE01FE0D0F840
:1036B0005801C0B101F07F0000EB800004EB8005F1
:1036C00005F5AA7541B1802906D02046FFF7B4FD63
:1036D00010B10120286000E02E6002222946204619
:1036E000FFF769FB03E011462046FFF73FFB384632
:1036F000BDE8F08170B5054608780C4610F0600012
:1037000003D0202801D0402816D195F89C0201282A
:1037100003D0022801D003280ED1207901280BD82C
:10372000D5F8B402826828469047E188014306D163
:103730002846FFF74DFB02E02846FFF717FB002065
:1037400070BD704700487047100600202DE9F04713
:103750000C784FF0000C30F8243048F68F121340EC
:10376000CA78002A7DD0012A7CD0022A03D0032AFD
:1037700079D04FF0010C48F28002134320F8243036
:103780000D7830F8254048F68F731C402C431443C5
:1037900020F825400F7B48F6BF744BF68F7948F22E
:1037A000C0054CF28006EFB391F80080C24630F8B5
:1037B000287048F280181F4047EA080720F82A704E
:1037C000B0F8507091F80080074407EB0817B1F883
:1037D000088028F00108A7F80084B0F8507091F82C
:1037E0000080074407EB0817B1F80A8028F00108A9
:1037F000A7F808844F7891F80080002F30F82870DF
:103800004FEA47477ED0002F05DA30F828701F4076
:10381000374320F828700F7830F827805FEA48682F
:1038200009D500E033E030F8278008EA030848EAC9
:10383000050820F827800F7830F827501D403543C1
:1038400020F82750CB780D78012B30F8253003EA8B
:10385000040301D083F02003134320F825300B78B4
:1038600002E00BE010E00CE030F8231001EA09015F
:10387000114320F823106046BDE8F08743F400733D
:1038800079E743F4C06376E743F4806373E74F78E6
:1038900027B3B0F850600F78064406EB0716CF88C0
:1038A00027F00107A6F800740F7830F82760760635
:1038B00005D530F827601E402E4320F82760CB78CE
:1038C000012B06D00B7830F82310214081F0200125
:1038D000CEE70B7830F823102140C9E7B0F850400C
:1038E0000D78044404EB0514CD8825F00105A4F8F7
:1038F0000854B0F850400D78044404EB051404F269
:103900000C4400E030E00D6955B13E2D10D86F0831
:10391000ED0700D07F1C4FF6FF7505EA87250FE005
:10392000258825F4F8452580258845F4004507E0DD
:103930006F09ED0600D17F1E4FF4004545EA87254B
:1039400025800D7830F82540640405D530F82540F1
:103950001C40344320F825400B7830F8231001EA4E
:10396000090181F4405183E7002F05DA30F828700F
:103970001F40374320F828700E7830F826707F06F5
:1039800005D530F826701F402F4320F826700F7899
:1039900030F827601E402E4320F827600D7830F85D
:1039A000253003EA090383F44053134320F82530FC
:1039B0008FE7002070472DE9F04391F80C804F7895
:1039C0000A7848F6BF7C4BF68F7948F2800348F2BC
:1039D000C0054CF2800648F68F74B8F1000F28D06D
:1039E000002F30F822704FEA474748D0002F05DA01
:1039F00030F822702740374320F822700A7830F8D8
:103A000022707F0605D530F8227027402F4320F81A
:103A100022700D7830F825202240324320F82520EE
:103A20000C7830F8242002EA0C021A4320F82420F3
:103A30001AE07FB130F82260760605D530F82260B2
:103A400026402E4320F822600A7830F8221001EA3E
:103A50000C010EE030F822506D0405D530F82250EC
:103A60002540354320F822500A7830F8221001EA28
:103A70000901194320F822100020BDE8F083002F2F
:103A800005DA30F822702740374320F822700A7890
:103A900030F82260760605D530F8226026402E43A5
:103AA00020F822600E7830F8262022402A4320F8A1
:103AB00026200C7830F8242002EA09021A4320F864
:103AC0002420C1E7002070470020704700B5012185
:103AD000A0F840100021A0F84010A0F84410A0F871
:103AE000501000F02EF9002000BD30F8401F21F4E6
:103AF0003F410180002070470020704730B50A7BAD
:103B0000B2BB4A7848F68F7548F28004C2B10B7890
:103B100030F82320520607D530F823202A4048F2F7
:103B2000C0052A4320F82320CA78012A20D00A7829
:103B300030F8221048F6BF73194081F0200114E0DC
:103B40000A7830F822305B0407D530F822302B4059
:103B50004CF280052B4320F822300A7830F82210EE
:103B60004BF68F73194081F44051214320F8221005
:103B7000002030BD10B54A780978002A48F2800349
:103B800030F8212005D048F6BF74224082F01002A0
:103B900004E04BF68F74224082F480521A4320F8DE
:103BA0002120002010BDF0B50E46054691F801C059
:103BB0000022097B3469B06948F28007BCF1010F2B
:103BC00004D0A0424FD9001BB0614EE0A04202D900
:103BD000001BB06101E00446B26169B1307835F88C
:103BE00020104906B5F85010294401EB001012D5F9
:103BF000A0F80C44728911E0A3B2F28828467169DA
:103C000000F0CEF8B5F850003178284400EB0110F0
:103C1000A0F804441EE0A0F804443289A3B2284668
:103C2000716900F0BDF8707848F68F7110B1012805
:103C300007D00FE0327835F82200084048F2C00182
:103C400005E0327835F8220008404CF28001084344
:103C500025F82200317835F8210048F6BF7210406F
:103C600080F0300068E00446B2614FF6FF724FF416
:103C7000004381B3BCF1000F15D027E0018821F487
:103C8000F8410180018841F400410AE03E2C3ED811
:103C90006108E30700D0491C02EA812101E043EA00
:103CA0008121018040E0B5F850003178284400EBD4
:103CB000011000F204407CB13E2C15D861085FEA87
:103CC000C47C00D0491C02EA81210180707810B1C7
:103CD000012821D028E00FE0018821F4F84101807B
:103CE000018841F40041F0E761095FEAC46C00D14A
:103CF000491E43EA8121E8E7B5F8500031782844AD
:103D000000EB011000F20C40002CBFD1B6E76109B6
:103D1000E206C4D1491EC2E7B5F8501048193178FF
:103D200000EB0110A0F80C44317835F821004BF677
:103D30008F72104080F44050384325F82100002055
:103D4000F0BD30F8401F41F43F4101800020704732
:103D50000148FDF749BC000030080020B0F84400DD
:103D60007047000010B500EB42005C0800F5806071
:103D700009D000BF30F8042B01F8012B120A01F81A
:103D8000012B641EF6D1DA0701D00088087010BD3F
:103D90000020704711B98021A0F84C100020704716
:103DA00010B55B1C00EB42005B0800F5806009D099
:103DB00011F8012B11F8014B42EA042220F8042BE0
:103DC0005B1EF5D110BDFEE70FB4054B10B503A97E
:103DD000044A029800F002F910BC5DF814FB0000E0
:103DE00021470008080000200FB41CB5024600203F
:103DF00007AC00290BD0491ECDE90021054B6A46CE
:103E00002146069800F0EAF8009A002111701CBCC7
:103E10005DF814FB0B4700080907090E002804DBB6
:103E200000F1E02080F80014704700F00F0000F16E
:103E3000E02080F8141D704702E008C8121F08C176
:103E4000002AFAD170477047002001E001C1121F1B
:103E5000002AFBD1704700002DE9FF5F82B00021EE
:103E6000DDE90430020DDDF840B0034318D044F61C
:103E70001050A2F2FF3242431514119801281FD0AE
:103E8000A5EB0B00401C5FEA000A4FF000064E4F06
:103E9000DFF83891B046504615D5CAF1000413E05A
:103EA000119801244AA3012801D16FEA0B0102985D
:103EB000119AC0E90031C0E9024206B0BDE8F09FA6
:103EC000CBF10000DFE704460021404A491842EBED
:103ED0000450CDE9001012E0E00707D032463B461F
:103EE00040464946FCF72CFB8046894632463B4615
:103EF00010461946FCF724FB06460F466410002CBA
:103F0000EAD1DDE90401DDE90023BAF1000F06DAA8
:103F1000FCF716FB42464B46FCF712FB05E0FCF7AC
:103F200081FB42464B46FCF77DFB04460E460022D1
:103F3000284BFCF7FFFB03D84FF0FF30014607E0AA
:103F40000022254B20463146FCF753FAFCF7D9FBFB
:103F5000102409E0002C0ADB0A220023FCF7E1F917
:103F6000039B30321A55641E50EA0102F2D1641CE0
:103F7000039AC4F111031444119A012A03D00122B7
:103F800008430DD10AE0084304D000204FF0110B84
:103F9000119072E7A3EB0B056D1E0DE05B4504DD90
:103FA0004FF0000205F1010504E003DA4FF00002D2
:103FB000A5F10105002AECD002981199C0E902315F
:103FC000C0E9004579E70000000014400000F03F20
:103FD000300000000000F0430000E03F2DE9FF4FFB
:103FE00095B09B468946064600250FE2252877D1E5
:103FF00000242746F84A0121059400E0044316F8FE
:10400000013F203B01FA03F01042F7D130782A2813
:1040100011D06FF02F033078A0F13002092A16D8A2
:10402000059A44F0020402EB820203EB42021044C0
:10403000761C0590EFE759F8042B0592002A03DA65
:10404000504244F40054059044F00204761C307849
:104050002E2816D116F8010F44F004042A280DD09A
:104060006FF02F023078A0F13003092B09D807EB4D
:10407000870302EB4303C718761CF3E759F8047B68
:10408000761C30786C280FD006DC4C2817D06828B6
:104090000DD06A2814D104E0742810D07A280FD1EA
:1040A0000DE044F400140AE044F4801401E044F408
:1040B00040147278824202D104F58014761C761C7A
:1040C000307866280BD013DC582877D009DC00281C
:1040D00075D04528F6D04628F4D047281AD19DE15E
:1040E00018E0632835D0642879D0652812D195E18D
:1040F000702873D008DC6728F1D069286FD06E284B
:104100000DD06F2806D1B5E073282CD0752875D056
:10411000782874D05A46179990476D1C75E1C4F3FE
:104120000250022809D003280DD0D9F80010042825
:104130000DD00D6009F1040967E1D9F80010EA1704
:10414000C1E90052F6E7D9F800100D80F2E70D70D2
:10415000F0E719F8041B8DF8001000208DF801001D
:10416000EA46012003E059F804AB4FF0FF30610745
:104170004FF0000102D40DE008F101018846B94278
:104180000FDA8045F8DB1AF808100029F4D108E0AE
:1041900008F1010188468142FADB1AF8081000296B
:1041A000F6D105985B46A0EB080721463846179ADA
:1041B00000F094FA284400EB080507E04DE029E1FF
:1041C0000DE01AF8010B5A4617999047B8F101080B
:1041D000F7D25B4621463846179A13E142E00A229D
:1041E0000092C4F302524FF0000A022A08D059F894
:1041F00004CB032A4FEAEC710AD00DE029E02AE053
:1042000009F1070121F00702F2E802C1914609E035
:104210000FFA8CFC4FEAEC71042A03D14FFA8CFCA4
:104220004FEAEC71002907DA0A460021DCF1000CA4
:1042300061EB02012D2202E0220504D52B228DF82C
:104240000420012203E0E20701D02022F7E7904694
:1042500059E00A2102E010220DE010214FF0000A7F
:1042600000910BE010224FF0000A44F004040827EC
:10427000009203E008224FF0000A0092C4F30252B9
:10428000022A05D059F804CB0021032A08D009E0FE
:1042900009F1070121F00702F2E802C1914605E0A9
:1042A0001FFA8CFC042A01D10CF0FF0C4FF000081F
:1042B000220728D5702806D0009B83F0100353EA0C
:1042C0000A0305D00EE040228DF80420012208E008
:1042D0005CEA010206D030228DF804208DF805003A
:1042E00002229046009B83F0080353EA0A030AD196
:1042F0005CEA010201D1620705D530228DF8042065
:104300004FF001087F1E582804D034A003900EA857
:1043100002900DE036A0F9E753466046009AFCF79C
:1043200000F884460398825C0298401E0290027056
:104330005CEA0100F0D1029806A9081A00F1200AEF
:10434000600702D524F4803400E00127574502DDE0
:10435000A7EB0A0000E0002000EB0A01009005989E
:104360004144401A0590E00306D45B462146179A63
:10437000059800F0B3F90544002706E001A85A4665
:10438000C05D179990476D1C7F1C4745F6DBE00325
:104390000CD55B462146179A059800F09FF9054415
:1043A00004E030205A46179990476D1C0099481E2A
:1043B00000900029F5DC08E0029802995A4600783E
:1043C000491C0291179990476D1CBAF10001AAF19E
:1043D000010AF1DC65E100000928010030313233C7
:1043E0003435363738396162636465660000000031
:1043F000303132333435363738394142434445461B
:104400000000000000F058F90544761C30780028C0
:104410007FF4ECAD19B02846BDE8F08F620700D4F8
:10442000062709F1070222F0070CFCE80223E14607
:1044300003F000485FEA080C02D00FF2702C0DE088
:104440005FEA045C02D50FF2682C07E05FEAC47CE7
:1044500002D00FF2602C01E0AFF2700C4FF0FF3889
:1044600023F00043CDF850C065280CD006DC452869
:1044700009D046281DD047283DD13DE0662818D0F8
:1044800067287ED138E00021112F01DB112000E0E8
:10449000781CCDE9000106A90EA8FFF7DDFCDDE9D7
:1044A0000F010E9A03910021009207F1010A049175
:1044B0004DE04FF000400097CDE9011006A90EA88D
:1044C000FFF7CAFCDDE90F0203920E9B119900224F
:1044D000DDF80CA00093049211B9791C00EB010ADD
:1044E000B7EB0A0004D4C0F1FF3007F1010A0490D1
:1044F000AAEB0700019044E0012F00DA0127002118
:10450000112F01DD112000E03846CDE9000106A998
:104510000EA8FFF7A1FCDDE90F010E9A039100211F
:1045200004910092BA4621070CD40399514500DA50
:104530008A46BAF1010F05DD009AAAF10101515C2A
:10454000302908D0B84202DA10F1040F06DA01214E
:10455000CDE9011015E0AAF10101E9E7002805DC29
:10456000049901440491AAEB000102E0411C514569
:1045700000DD8A460499401A401C01904FF000402B
:104580000290200704D40198504501DBCDF8048047
:1045900000208DF84F0002980DF14F07B0F1004F49
:1045A00025D02B200E9002984FF0020800280CDA3C
:1045B000404202902D200E9007E00A210298FBF75E
:1045C0009AFE3031029007F8011DB8F10001A8F100
:1045D0000108F2DC02980028EFD1791E0E980870CD
:1045E000307800F0200040F0450007F8020D12A8D6
:1045F000C01B00F107081498007800B1012000EBFF
:104600000A01019801EBE07105984144401A401EEF
:104610000590E00306D45B462146179A059800F002
:104620005DF805441498007818B15A4617999047D8
:104630006D1CE00324D55B462146179A059800F0CF
:104640004DF805441CE00498002807DBDDE9030170
:10465000884203DD0098405C179901E017993020EB
:104660005A469047049805F10105401C04900198B2
:10467000401E019004D12E205A46179990476D1C78
:10468000BAF10001AAF1010ADDDC05E017F8010B1F
:104690005A46179990476D1CB8F10001A8F101081E
:1046A000F4DC5B462146179A0598ABE62D00000026
:1046B0002B000000200000002DE9F04104460025F9
:1046C0001E461746880404D405E039462020B0472A
:1046D0006D1C641EF9D52846BDE8F0812DE9F04136
:1046E000044600251E469046C80301D5302700E049
:1046F0002027880404D505E041463846B0476D1CA4
:10470000641EF9D52846BDE8F0814A68002A06D023
:104710000A68531C0B6010704868401E4860704760
:1047200005490968C90105D54FF060410A68002AAA
:10473000FCD0087070470000FCED00E0A0B01C2128
:1047400002A8FBF718FDFCF7AFFDFEF71AF8FDF71E
:10475000CDFD3E48416941F00101416140690022BF
:1047600000F00100009011460B20FCF7FBFD0B2030
:10477000FCF7EAFDFDF774FEFDF798FDFDF7F6FD89
:10478000FDF72EFE32496422A1F1B000FCF7F2FAE7
:104790002F488038FDF7E0FB2D4800214038FDF719
:1047A0004BFD00256020CDE9020504200690284835
:1047B0002A4602A904954038FDF7B9FC254C00BFF4
:1047C0004FF000080127656020780028FCD0257094
:1047D0001F4A0020C4F8045032F81010401C64280E
:1047E000FADB6420B1FBF0F640F6E440704366600B
:1047F000FBF769FD1849FBF728FD01464046FBF72A
:10480000CCFC80461248002202A940380396FDF7EE
:104810008EFC38467F1C6428D6DB10494046FBF7E7
:1048200014FDFBF755FDCDE900010DA2502109A8AB
:10483000FFF7DAFA09A8FBF7A9FC81B209A8FCF78F
:1048400009F909A909A0FFF7BFFAB9E7001002406A
:10485000400200200000002000F07F450000C84218
:1048600020256620206D56200D00000025730000D5
:104870000000000000000000010203040607080910
:10488000A0480008000000209001000084080008F3
:104890006049000890010020E0160000483E000832
:1048A000C113092E1B0839041A45041A6D041A99FC
:1048B0000413E92D1B081508170403090412011439
:1048C000020202164083044057260201020301033C
:1048D0001A1A0313190A1B0813041A0F041A3D04A9
:1048E000192F1182105324F4130A0632022A401C95
:1048F0001C090243571125C03209041B01020B1386
:1049000005241610010524011009010424020205E2
:104910002406170107058203081C1009048D320ABA
:104920001D07050102432C070581070938442A4069
:10493000072A8107112B0907440A3B044413752BEE
:104940001408DB2A14085D2C42081A1F101A67107D
:104950001AAD04C11A5D181A51041A69041A4504E3
:04000005080000ED02
:00000001FF
