:020000040800F2
:1000000078170020010100082B1F00085517000871
:10001000291F0008DB080008033600080000000064
:10002000000000000000000000000000F1210008B6
:100030004F09000800000000EF210008F32100082C
:100040001B0100081B0100081B0100081B01000820
:100050001B0100081B0100081B0100081B01000810
:100060001B0100081B0100081B0100084D090008C6
:100070001B0100081B0100081B0100081B010008F0
:100080001B0100081B0100081B0100081B010008E0
:100090008D3500081B0100081B0100081B0100082A
:1000A0001B0100081B0100081B0100081B010008C0
:1000B0001B0100081B0100081B0100081B010008B0
:1000C0001B0100081B0100081B0100081B010008A0
:1000D0001B0100081B0100081B0100081B01000890
:1000E0001B0100081B0100081B010008DFF80CD0F1
:1000F00000F038FB00480047793F000878170020DF
:100100000648804706480047FEE7FEE7FEE7FEE7B1
:10011000FEE7FEE7FEE7FEE7FEE7FEE75D220008FA
:10012000ED000008202A04DB203A21FA02F0002129
:10013000704721FA02F3D040C2F1200291400843F7
:100140001946704740EA01039B0703D009E008C93C
:10015000121F08C0042AFAD203E011F8013B00F88C
:10016000013B521EF9D27047D2B201E000F8012BD8
:10017000491EFBD270470022F6E710B513460A4627
:1001800004461946FFF7F0FF204610BD421C10F848
:10019000011B0029FBD1801A7047F0B480EA0102EC
:1001A000D40F4200B2EB410F02D20246084611467C
:1001B0004A0042D0C30DDDB2C1F3C752AD1A202DA3
:1001C00035DAC1F3160141F4000204B15242C5F11F
:1001D000200602FA06F12A411044B3EBD05F23D087
:1001E000C4B1012DA0EBC35009DCF0BC4FF00042BC
:1001F00002EAC352DBB200F5000000F0CCB84000C8
:1002000000F1807000EBC350A0F1807040EAD17023
:10021000490009E0490841EAC071A0EBC35000F56C
:100220000000400800EBC350F0BC00F0ABB86142E6
:10023000012202EB4101001BF6E7F0BC704781F0A0
:100240000041AAE780F00040A7E730B480EA01024D
:1002500002F0004530F0004221F0004013D090B190
:10026000C30DD40DC2F31601C0F31600E41A41F415
:10027000000140F400027D34914201D3641C00E08F
:100280004900002C02DA30BC002070474FF4000017
:100290000023914201D3891A034340084FEA4101E8
:1002A000F7D151B1914202D14FF0004105E002D2A5
:1002B0004FF0010101E06FF0010103EBC45028444D
:1002C00030BC00F05FB896230022114600F063B8FE
:1002D00000F0004230F000400AD0C10D01F560711D
:1002E000C0F3160042EA0151C208400711437047AB
:1002F00000200146704730B50B4601460020202201
:10030000012409E021FA02F59D4205D303FA02F522
:10031000491B04FA02F52844151EA2F10102F1DC82
:1003200030BD2DE9F05F0546002092469B46884689
:100330000646814640241BE0284641464746224661
:10034000FFF7F0FE53465A46C01A914110D31146AA
:100350001846224600F018FA2D1A67EB01084F469E
:1003600022460120002100F00FFA17EB00094E4150
:10037000201EA4F10104DFDC484631462A464346EC
:10038000BDE8F09F0029A8BF7047401C490008BF86
:1003900020F00100704710B4B0FA80FC00FA0CF0B5
:1003A00050EA010404BF10BC704749B1CCF12004ED
:1003B00021FA04F411FA0CF118BF0121214308437A
:1003C000A3EB0C01CB1D4FEA00614FEA102042BFA6
:1003D000002010BC704700EBC35010440029A4BF9C
:1003E00010BC7047401C490008BF20F0010010BC41
:1003F00070472DE9FE4F804681EA0300C00F0C468E
:10040000009021F0004123F00045B8EB0200A94123
:1004100005D24046214690461C460B46024623F034
:100420000040104347D0270DC7F30A00C3F30A5119
:100430000290401A019040286BDAC3F3130040F495
:10044000801B0098924620B10023D2EB030A63EB95
:100450000B0B01985946C0F14002504600F094F948
:1004600006460D4650465946019A00F09CF910EB9D
:1004700008006141002487EA115284EAE7731A43B5
:1004800040D0009A62B3019A012A4FEA075215DC64
:10049000001B61EB02014FF0004202EA0752CDE976
:1004A0000042001C41F5801132462B4600F09CF9B9
:1004B00003B0BDE8F08F40462146F9E7001B61EB31
:1004C0000201001C41F5801300185B412018A2F5C1
:1004D000001747EB030140EAD570B6196D4111E0F2
:1004E0006D084FEA360645EAC0754FEA0752001B11
:1004F00061EB0201001C41F5801149084FEA300010
:100500000019514132462B4603B0BDE8F04F00F0D0
:100510005CB90098012240000023D0EB020263EB9B
:10052000E073009821464FEAE074B8EB000061EBFD
:100530000401E9E783F000435BE781F0004158E7FD
:100540002DE9FE4F81EA030404F0004421F000414C
:1005500000944FF0000B23F0004350EA01045ED0FA
:1005600052EA03045BD0C3F30A54C1F30A552C4486
:10057000A4F2F3340194A0FB0254C1F3130141F43B
:100580008011C3F3130343F4801301FB024400FB07
:10059000034E840A970A44EA815447EA8357A4FB2E
:1005A000076802958D0A05FB07854FEA932C04FB2B
:1005B0000C542705029D4FEA065847EA1637B5EB5B
:1005C00008056EEB070C870E920E47EA811742EA88
:1005D0008312A7FB0201B6EB0B0164EB00042B0DA9
:1005E00043EA0C335E1844EB1C50DA465146E7FBF5
:1005F0000201C5F313044FEA0B3343EA14534FEAE5
:100600000432019C43EA0603A4F10C040294009C0A
:10061000CDE900B400F0E8F803B0BDE8F08F0020A9
:100620000146F9E72DE9F04D81EA030404F0004B9F
:1006300021F0004514464FF0000A23F0004150EA33
:10064000050220D054EA01021DD0C5F30A57024624
:10065000C5F31303C1F31300C1F30A5640F4801528
:1006600043F48013A7EB0608101BD64608F2FD38AA
:1006700073EB050002D308F1010801E092185B4119
:10068000B8F1000F03DA00200146BDE8F08D00202C
:100690004FF48011064684460EE0171B73EB0507E6
:1006A00005D3121B63EB050306434CEA010C490812
:1006B0004FEA300092185B4150EA0107EDD152EA4F
:1006C000030012D082EA040083EA0501084305D042
:1006D000101BAB4106D20122002306E000224FF09E
:1006E000004302E06FF0010253101AEB06004CEBDE
:1006F000085110EB0A0041EB0B01BDE8F04D00F092
:1007000064B8C1F30A52C1F3130140F2FF3341F45C
:1007100080119A4202DA00200146704740F23343CA
:100720009A42A2F2334202DC5242FFF7FBBC00F0D5
:100730002BB8000030B5041E71F1000404DB4FF04B
:100740000044404264EB0101141E73F1000405DB18
:100750001C464FF00043524263EB0403994208BF2A
:10076000904230BD064C074D06E0E06840F00103C2
:1007700094E8070098471034AC42F6D3FFF7BAFC70
:100780000841000828410008202A04DB203A00FA2A
:1007900002F1002070479140C2F1200320FA03F3D8
:1007A000194390407047202A06DBCB17203A41FAC4
:1007B00002F043EAE07306E041FA02F3D040C2F1EE
:1007C0002002914008431946704710B5141E73F17A
:1007D000000408DA401C41F1000192185B411A4301
:1007E00001D120F0010010BD2DE9F04D92469B464D
:1007F00011B1B1FA81F202E0B0FA80F220329046F3
:10080000FFF7C2FF04460F4640EA0A0041EA0B0127
:1008100053465A46084313D0114653EA010019D0F3
:10082000C8F140025046FFF77DFC05460E46504693
:1008300059464246FFF7A8FF084305D0012004E0CF
:1008400020463946BDE8F08D0020054346EAE076B3
:100850002C4337430A986305E40AA0EB0800002202
:10086000FD0A44EA47540A3002D500200146E9E770
:10087000010510196941DDE9084500196941BDE824
:10088000F04DA2E770B58C1810F8015B15F0070366
:1008900001D110F8013B2A1106D110F8012B03E019
:1008A00010F8016B01F8016B5B1EF9D12B0705D421
:1008B0000023521E0DD401F8013BFAE710F8013B6A
:1008C000CB1A921C03E013F8015B01F8015B521E86
:1008D000F9D5A142D8D3002070BDFEE700207047B3
:1008E0000020704710B500220449054801F0CCFDF6
:1008F0000449034801F0C2FD002010BD900F002004
:1009000058020020A80B002010B50146034801F052
:10091000B5FD024801F096FD002010BD58020020F0
:10092000094A10B5D2F8B822D2F814220AB101202F
:1009300010BD0A460146044801F0A6FDBDE810407E
:10094000014801F0FFBD00005802002070477047C9
:10095000704700002DE9F84FDFF8B891002409F145
:10096000040A0AF1040B23460F270BF1040EC9E019
:100970000125A5402A40AA427DD1674ED1F804C086
:10098000ACEB0608B44532D014DCBCF1030F3AD00E
:1009900009DCBCF1000F2AD0BCF1010F1CD0BCF166
:1009A000020F31D11DE0BCF1110F17D0BCF1120FB5
:1009B0002AD119E0B8F5881F19D006DCB8F5803FB8
:1009C00015D0B8F5801F1FD111E0B8F5001F0ED06B
:1009D000B8F5041F18D10AE0CB6815E0CB681B1DE1
:1009E00012E0CB6808330FE0CB680C330CE08B6867
:1009F0002BB1012B4FF0080303D0456104E0042321
:100A000002E0056100E00023FF2A01D8064601E06C
:100A100000F104064FEA840501D9A5F12005D6F8B6
:100A2000008007FA05FC28EA0C0803FA05F548EAF5
:100A30000508C6F800804D68ED0062D5374DAE69F7
:100A400046F00106AE61AD6924F0030605F001052C
:100A50000095334D06EB050CDCF80850A607360F61
:100A600007FA06F825EA0805DFF8B880404503D103
:100A70004FF0000817E044E0DFF8AC80404502D1B9
:100A80004FF001080FE0DFF8A480404502D14FF09D
:100A9000020808E0DFF89880404502D14FF00308D3
:100AA00001E04FF0040808FA06F848EA0508CCF817
:100AB00008804D68D9F80060ED034D4601D5164316
:100AC00000E096432E604D68DAF80060AD035546AD
:100AD00001D5164300E096432E604D68DBF80060B8
:100AE000ED025D4601D5164300E096432E604D6849
:100AF000DEF80060AD02754601D5164300E096436E
:100B00002E60641C0D682A46E5407FF431AFBDE8D5
:100B1000F88F000000040140000011100010024096
:100B20000000014000080140000C0140001001409D
:100B3000001401400AB1016170470904FBE700009D
:100B400001488068704700006C00002002488168FE
:100B500002781144816070476C000020074810B58E
:100B6000016841F010010160032000F075F80020D9
:100B700000F006F800F024F8002010BD002002402C
:100B800070B50D4D04464FF47A712878B1FBF0F042
:100B90000A490968B1FBF0F000F0C8FD48B9102C13
:100BA00007D200222146501E00F036F800206C606B
:100BB00070BD012070BD00006C0000207800002096
:100BC0000C4808B5816941F001018161816901F03A
:100BD00001010091C16941F08051C161C06900F01B
:100BE000805000900448416821F0E06141F00071BC
:100BF000416008BD0010024000000140002809DBF0
:100C000000F01F02012191404009800000F1E02026
:100C1000C0F8001170470000F0B40E4B1B680C4682
:100C2000C3F30223C3F10705042D00D90425191DC0
:100C3000072901D2002300E0DB1E012606FA05F198
:100C4000491E214099409E40761E16403143F0BC1B
:100C500002F000BD0CED00E0064900F00702086854
:100C60004FF6FF03184040EA0220034A1043086091
:100C7000704700000CED00E00000FA0510B50C060E
:100C800005D501F0070100EB4110283003E000EB2F
:100C9000411000F5947099B232B1012202730181C2
:100CA000190C4181002010BD00220273C180F9E7B8
:100CB000704700EB4112D0F86802D26B01F0F1BD31
:100CC00000EB4112D0F86802D2F83C2101F04CBE92
:100CD00070B504460B0601F0070004EB40114FF01D
:100CE00001024FF0000503D581F82920283103E0E7
:100CF00081F8295101F59471087094F828020128AF
:100D000008D084F82822206802F073FA84F8285268
:100D1000002070BD022070BD70B5044601F00F00C8
:100D20006268904201D9012070BD0B0601F00700F6
:100D300004EB40114FF001024FF0000503D581F89C
:100D40002920283103E081F8295101F594718D7033
:100D5000087094F82802012808D084F82822206816
:100D600002F0EAFA84F82852002070BD022070BD1B
:100D700001F0070100EB4110D0F8440170472DE964
:100D8000F04104460F0601F0070004EB40114FF05C
:100D900001064FF0000503D581F82960283103E0F2
:100DA00081F8295101F5947108700A61CB704A7875
:100DB00002B1C881022B00D10D7194F828020128DC
:100DC00009D084F82862206802F0DEF8284684F80A
:100DD0002852BDE8F0810220FBE770B50C4601F017
:100DE000070500EB4511C1E94F230022C1F844215A
:100DF00081F8292181F8285101F594716207006872
:100E000002F0EFFA002070BD70B504460D4601F007
:100E100007006168884201D9012070BD29064FF0A2
:100E200000064FF0010205D504EB401181F829209E
:100E3000283105E004EB451181F8296101F5947131
:100E40008A70087094F82802012807D084F82822B4
:100E5000206802F0ADFA680702D006E0022070BDFB
:100E600004F50C71206802F065FA84F8286200200D
:100E700070BD70B50C4601F0070500EB4511C1E9E6
:100E80000F2300224A64012281F8292001F8285FFB
:100E90006207006802F0A5FA002070BD10B5044694
:100EA000006802F079FB000402D5204601F03EF80C
:100EB000206802F071FB40050CD5206830F8441F13
:100EC00021F480610180204600F0FCF800212046DA
:100ED00000F013F9206802F05FFB400405D520689C
:100EE00030F8441F21F480410180206802F054FB57
:100EF000800405D5206830F8441F21F4005101809A
:100F0000206802F049FBC00414D5206830F8401F67
:100F100021F004010180206830F8401F21F0080111
:100F20000180204600F0E1F8206830F8441F21F4E9
:100F300080510180206802F02FFB00051FD520683A
:100F400030F8401F41F008010180206830F8441F4C
:100F500021F400610180206830F8401F41F0040155
:100F60000180206802F018FBC00405D5206830F825
:100F7000441F21F480510180204600F0F3F82068DE
:100F800002F00AFB800508D5206830F8441F21F4E0
:100F900000710180204600F0ACF8206802F0FCFAF5
:100FA000C00505D5206830F8441F21F48071018008
:100FB00010BD00002DE9F04186B0040004D094F883
:100FC0002902002520B108E0012006B0BDE8F0812B
:100FD00084F82852204600F057F8032084F82902AC
:100FE000206802F0A0F904F1100114228846684636
:100FF000FFF7A8F894E80F0002F0F9F80227B0BB59
:101000000021206802F0E2FA002001260DE000BF76
:1010100004EB401181F8296001F8280FC881CD70D8
:101020000D614D61401CC0B28D6161688142EFD895
:1010300000200FE004EB401181F8295181F82801CC
:1010400081F82B51C1F83851C1F83C51401CC0B255
:10105000C1F8405161688142ECD81422414668468B
:10106000FFF770F894E80F0002F04EF910B184F821
:101070002972A9E784F8245084F82962206802F0D4
:1010800041F90020A1E7000008B500680B4988423B
:1010900012D10B48C16941F40001C161C06900224D
:1010A00000F40000009011461420FFF7B5FDBDE8E4
:1010B00008401420FFF7A2BD08BD0000005C0040FE
:1010C0000010024070B5044680680125022801D056
:1010D000FFF73EFC2946D4F8680201F02CFDD4F855
:1010E0006802BDE8704001F0E8BCD0F8680201F089
:1010F0000CBDD0F8680201F012BD10B5044690F89E
:10110000280201280BD0012084F8280284F824103A
:10111000206802F05DFA002084F8280210BD022049
:1011200010BDD0F8682200F50C71104601F00FBD1B
:1011300010B5044690F82802012810D0012084F848
:10114000280201462046FFF7B3FD206802F0D8F8D8
:10115000206802F014FA002084F8280210BD022052
:1011600010BD000010B50446D0F8680201F02EFD55
:10117000A069002804D00348016841F0060101601D
:1011800010BD000010ED00E02DE9F84305460078A1
:10119000354CC00754D0E0690026C00008D4E0698F
:1011A00040F08050E061E069012600F0805000903E
:1011B0002E480168C90512D40168804641F4807147
:1011C0000160FFF7BDFC074605E000BFFFF7B8FC74
:1011D000C01B642823D8D8F80000C005F6D5206AC3
:1011E00010F4407021D0A98801F4407181421CD0D4
:1011F000206A1F49012220F440700A6000220A6020
:101200002062C00711D0FFF79BFC074641F28838E7
:1012100008E000BFFFF794FCC11B414502D9032041
:10122000BDE8F883206A8007F4D5206A696820F455
:101230004070084320621EB1E06920F08050E061F8
:101240002878800705D56068A96820F440400843E5
:1012500060602878C00605D56068E96820F48000E1
:10126000084360600020DBE700100240007000408F
:10127000400442422DE9F0470F46050061D0434E3D
:10128000306800F00700B84209D2306820F007004B
:1012900038433060306800F00700B84251D1286808
:1012A0003B4C810712D5400703D5606840F4E060ED
:1012B00060602878000703D5606840F46050606083
:1012C0006068A96820F0F000084360602878C007D3
:1012D00028D06868012810D02168022810D089071A
:1012E00000292EDA616821F0030101436160FFF7F4
:1012F00027FC804641F288390DE021688903EFE739
:101300008901EDE7FFF71CFCA0EB0801494502D974
:101310000320BDE8F0876068696800F00C00B0EB5E
:10132000810FEFD1306800F00700B8420BD9306868
:1013300020F0070038433060306800F00700B84202
:1013400001D00120E5E72878400705D56068E96805
:1013500020F4E060084360602878000706D56068E4
:10136000296920F4605040EAC100606000F018F87C
:101370006168084AC1F30311515CC840064908601E
:1013800006480068FFF7FCFB0020C2E7002002408F
:1013900000100240F5400008780000207000002096
:1013A00012A185B00FC98DE80F0014A0144A00687F
:1013B00004905168134801F00C03042B10D0082B43
:1013C0000ED1C1F38343C9031DF803000AD5516848
:1013D00004AAC1F34041515C0A4A5043B0FBF1F00A
:1013E00005B0704708494843FAE7000002030405C6
:1013F000060708090A0B0C0D0E0F10100102000061
:101400000010024000127A0000093D002DE9F84F5B
:10141000040070D02078C04DC00749D06868C0F380
:101420008100012807D06868C0F38100022809D133
:101430006868C00306D52868800339D5606800282D
:10144000E7D035E06068B0F5803F0BD010B1B0F563
:10145000A02F11D0286820F480302860286820F45C
:10146000802002E0286840F480302860606890B1F5
:10147000FFF766FB06460AE0286840F480202860F3
:10148000F0E700BFFFF75CFB801B642873D8286877
:101490008003F7D50CE0FFF753FB064605E000BFDD
:1014A000FFF74EFB801B6428F0D828688003F7D430
:1014B00020789A4E80074FF001094FF0000839D587
:1014C000686810F00C0F07D06868C0F3810002282C
:1014D00009D16868C00306D42868800714D520693C
:1014E000012808D110E02069B0B1C6F80090FFF7DC
:1014F00027FB074605E00AE1FFF722FBC01B022895
:10150000C4D828688007F7D52868616920F0F800FA
:1015100040EAC10028600DE0C6F80080FFF710FB2C
:10152000074604E0FFF70CFBC01B022823D82868FD
:101530008007F7D4207800072CD57948A169D9B164
:10154000C0F80090FFF7FCFA074604E0FFF7F8FA4E
:10155000C01B02280FD8686A8007F7D571484FF47E
:10156000FA510068B0FBF1F0009000BF0098411EF6
:101570000091FAD20EE080E0C0F80080FFF7E0FAB8
:10158000074604E0FFF7DCFAC01B022875D8686A3A
:101590008007F7D42078400760D5E8690027C000AD
:1015A00008D4E86940F08050E861E869012700F05C
:1015B000805000905C480168C90513D401688346D7
:1015C00041F480710160FFF7BBFA824606E000BF7C
:1015D000FFF7B6FAA0EB0A0064284ED8DBF800004B
:1015E000C005F5D5E06801280AD008B1052813D058
:1015F000286A20F001002862286A20F0040002E036
:10160000286A40F001002862E06841F2883B98B106
:10161000FFF796FA82460BE0286A40F00400286241
:10162000EEE700BFFFF78CFAA0EB0A0159455AD844
:10163000286A8007F6D50CE0FFF782FA824605E0BB
:10164000FFF77EFAA0EB0A0159454CD8286A8007BB
:10165000F6D41FB1E86920F08050E861E06988B3F2
:101660006968C1F38101022944D00228C6F860806C
:1016700004D0FFF765FA044638E034E0FFF760FA7B
:10168000074604E0FFF75CFAC01B02282BD8286845
:101690008001F7D4206AB0F5803F05D16868A16861
:1016A00020F4003008436860D4E908010843696801
:1016B00021F4741108436860C6F86090FFF740FA9F
:1016C000044606E025E000BFFFF73AFA001B0228B7
:1016D00009D828688001F7D51BE000BFFFF730FA72
:1016E000001B022802D90320BDE8F88F286880017A
:1016F000F4D40EE00128F7D06868226A00F4803143
:10170000914204D1616A00F47010884201D0012036
:10171000EAE70020E8E70000001002400000424233
:1017200080044242780000200070004010B5401E46
:10173000B0F1807F01D3012010BD4FF0E024606143
:101740000F21601701F086FF0020A06107202061B3
:10175000002010BDFEE70000F0B500230A2430256C
:1017600037261F4611E000BFB4EB107F02D905EB0E
:10177000107C01E006EB107C01F813C001EB430C78
:1017800000015B1C8CF80170DBB29342ECD3F0BD1E
:101790000D4B10B59B6800220C4C03F00103A468AC
:1017A00004F00104234302D00122104610BD096851
:1017B00029B1436823F470230B434360F5E7416884
:1017C00021F470214160F0E700240140002801402D
:1017D00010B58368002213F0010F02D001221046D9
:1017E00010BD43684C6823F48073234343608368CF
:1017F000096823F400630B438360F0E770B54B681E
:101800008468002214F0010F02D00122104670BD3E
:1018100033B18C682343446824F46844234302E0D2
:10182000436823F468434360CC680B6885682343AE
:101830000C69064E35402C43234383604968C36AD4
:1018400023F470030B43C362E0E70000FDFEF1FFE9
:10185000044908B5CA690243CA61C96901400091D7
:1018600008BD000000100240044908B58A6902431F
:101870008A6189690140009108BD000000100240A2
:10188000F0B50A68C2F30F2595FAA5F2B2FA82F311
:1018900069E001229A402A4264D0082B03D240F228
:1018A00001129A4006E0A3F108024FF0011494409F
:1018B00044F0806292FAA2F700EB1264B7FA87F75D
:1018C0004FEA870C0F27266807FA0CF7BE4392FAF7
:1018D000A2F7D1F804E0B7FA87F7BF000EFA07FEC7
:1018E00046EA0E0626600E69C7684FEA122C9CFA7B
:1018F000ACFCBCFA8CFC27EA122706FA0CF637433C
:10190000C7604E68012E01D0092E2BD192FAA2F7A2
:10191000B7FA87F74FEA870C032707FA0CF7266810
:10192000D1F808E0BE4392FAA2F7B7FA87F7BF00F2
:101930000EFA07FE92FAA2FC46EA0E06BCFA8CFCEE
:101940004FEA8C0E4FF0040C26600CFA0EFC92FA53
:10195000A2F2B2FA82F2CF68920026EA0C06974011
:101960003E4326605B1C35FA03F292D10020F0BDA5
:10197000F0B50268154B164C164D4FF08046984254
:1019800005D0B04203D0A04201D0A84203D14F6895
:1019900022F070023A43984205D0B04203D0A042F0
:1019A00001D0A84203D1CC6822F4407222430260E5
:1019B0008A68C2620A888262984201D1097C016306
:1019C000416941F0010141610020F0BD002C01405E
:1019D0000004004000080040F0B501250023604CE1
:1019E000012908D0102933D0B1F5807F64D0B1F53A
:1019F000805F5FD190E0016A21F001010162016A1C
:101A000045688669176826F073063E43176921F01A
:101A100002013943576821F001013943A04212D134
:101A2000546921F0080141EA8401946821F004011D
:101A300041EA840125F4807495692C43D56924F426
:101A4000007444EA450545608661D26842632FE030
:101A5000016A21F010010162016A45688669176810
:101A600026F4E64646EA0726176921F0200141EAF6
:101A70000711576821F0100141EA0711A04213D164
:101A8000546921F0800141EA8411946821F04001F9
:101A900041EA841125F48064956944EA8504D56996
:101AA00024F4006444EAC50545608661D268826317
:101AB00001621D462846F0BD016A21F48071016271
:101AC000016A4568C669176826F073063E431769C0
:101AD00021F4007141EA0721576821F4807141EA3D
:101AE0000721A04213D1546921F4006141EA842105
:101AF000946821F4806141EA842125F48054956939
:101B000044EA0514D56924F4005444EA45154560B7
:101B1000C661D268C263CBE7016A21F480510162D9
:101B2000056A4168C669176826F4E64646EA07264C
:101B3000176925F4005545EA0735576825F480559F
:101B400045EA0735A04204D1946921F4804141EA75
:101B500084114160C661D16801640562A9E7000093
:101B6000002C0140F0B58FB000240B940C9414218C
:101B700001A80D94FEF7FFFA142106A8FEF7FBFA60
:101B80004FF400752846FFF76FFE0420FFF76CFE48
:101B9000A81CCDE9060406A93D48FFF771FE3E4AA0
:101BA0003C49104612788A5844F210039A4303784D
:101BB000CA5002788A58037822F44052CA500278F8
:101BC0008A58037842F02002CA5002788A58037873
:101BD00022F04002CA5002788A58037842F080020C
:101BE000CA5002788E158A58037822F4407242F463
:101BF0008072CA5002788A58007822F4406242F417
:101C000080620A50254F0B940BA938460C94FFF7BD
:101C1000DFFD0DA938460D94FFF7BAFDA802CDE906
:101C20000104CDE9044601A938460394FFF7E6FD17
:101C30004FF4407090FAA0F0B0FA80F0C54007EB86
:101C40008500C16A21F01F0141F00101C1627004E9
:101C500090FAA0F10523B1FA81F1C84007EB8001A9
:101C6000CC684FF0F87292FAA2F54FF44010B5FA32
:101C700085F520FA05F50726AE4092FAA2F2B2FAEF
:101C800082F2D040B44383401C43CC600FB0F0BD1F
:101C90000008014000000240E0400008002401402C
:101CA000104808B5416941F001014161406900F007
:101CB000010000900C480068C0F30220011D0729B4
:101CC00001D2002000E0C01E002181400801074928
:101CD00081F800044FF0E0214FF40060C1F80001EA
:101CE00008BD0000001002400CED00E00BE000E039
:101CF00070B586B000241C480094019402940394AB
:101D0000816941F010018161816901F01001049144
:101D1000816941F020018161816901F02001049114
:101D2000816941F004018161816901F0040104913C
:101D3000816941F00801816180690C4E00F0080062
:101D40004FF400550490002229463046FEF7F2FE7B
:101D500001200095CDE90104022003906946304638
:101D6000FEF7F8FD06B070BD001002400010014003
:101D700030B58DB0142108A8FEF7FDF92021684682
:101D8000FEF7F9F90220FFF763FD4FF4F070ADF8AC
:101D9000200000250A20CDE90950194C08A9204649
:101DA0000B95FFF7E5FD206820F080002060A0681B
:101DB00044F207018843A0600095019502950395C0
:101DC0006A46A11420460495FFF706FE0D480C490B
:101DD00080791831084401680A4AD21D9379042297
:101DE0009A4091430160606820F0700040F020004C
:101DF0006060A06820F08000A0600DB030BD0000E1
:101E000000040040E7400008F0B593B0142108A892
:101E1000FEF7B1F920216846FEF7ADF914210DA8AF
:101E2000FEF7A9F90420FFF713FD4FF4F070ADF8A9
:101E3000200000264FF47A70CDE90960224C08A9F1
:101E400020460B96FFF794FD206820F0800020606C
:101E5000A06844F207018843A0601C4801781A4832
:101E600018300D182868194F0821FF1D3A78914045
:101E7000084328606020CDE90006029603966A4672
:101E8000012120460496FFF7A7FD28683A7804212F
:101E9000914008432860606820F070006060A0688E
:101EA00020F08000A0600820FFF7DEFC44F2400034
:101EB0000D9009200E900220CDE90F060DA90448CF
:101EC000FFF7DEFC13B0F0BD00080040E74000085B
:101ED000000C014010B500220F49104800F0BAFC78
:101EE00008B1FEF735FD0E490C4800F095FE08B12B
:101EF000FEF72EFD0B49094800F0B8FA08B1FEF7CD
:101F000027FD064800F0DEFE002803D0BDE81040A3
:101F1000FEF71EBD10BD00000C000020580200207E
:101F2000580100205C000020FEE770472DE9F05FBB
:101F3000044648F60F7B4FF0020A4FF480684AE1EE
:101F4000B0F8441011F00F0629D030F8267039048B
:101F500079D530F8261040F68F72114041F080019B
:101F600020F8261004EB461595F8340105F5947514
:101F70000028206868D0297830F8212052047DD5C7
:101F8000B0F850200AEBC1010A4408EB4201415A63
:101F9000C1F309015FEA010971D02A89D2E0C906BB
:101FA0002DD4018801EA0B0141F400410180206831
:101FB00004F12805B0F850202B780AEBC3010A443D
:101FC00008EB4201405AC0F309006064E16B084429
:101FD000E06300212046FEF76CFE94F82400002800
:101FE000ADD0A8690028AAD194F82400216840F057
:101FF0008000A1F84C00002084F82400EBE0018868
:1020000004F594750A0520D5B0F850202B780621E8
:1020100001EBC3010A4408EB4201405A04F50C717C
:10202000C0F30903EB61EA88206801F0B9FA20687F
:10203000018840F68F72114041F0800101802046F6
:10204000FFF76FF8C7E0A2E058E0090455D5018812
:1020500040F68F72114041F0800101802168B1F893
:1020600050202B78062000EBC300024408EB42000E
:10207000085A83059B0DEB6110D001E053E065E049
:10208000696959B1EA88206801F08AFAE9696869E2
:102090000844686100212046FEF712FE2068B0F86F
:1020A00050100844296900F20C4051B13E2910D863
:1020B0004A08C90700D0521C4FF6FF7101EA82217D
:1020C0000FE0018821F4F8410180018841F40041CA
:1020D00007E04A09C90600D1521E4FF4004141EA07
:1020E00082210180206801884BF68F72114081F4B3
:1020F000405148F28002114301806CE0B0F850205A
:102100002B78062101EBC3010A4408EB4201415A36
:10211000C1F309015FEA010924D0EA884B466969E5
:1021200001F03EFA1EE0B0F85030062202EBC10189
:102130005A1808EB4201415AC1F309015FEA01094B
:1021400004D06A894B46696901F02AFA2878226826
:1021500032F8201048F68F73194048F2C003194333
:1021600022F82010E8694844E861686900EB090238
:102170006A61AB6913B12869484504D929782046BA
:10218000FEF79EFD03E029782046FEF726FE38067E
:1021900021D5216804EB461031F8262002EA0B0213
:1021A00042F4004221F826202168B1F8505010F87E
:1021B000282F0AEBC2022A4408EB4202895AC1F3D3
:1021C0000901C16142690A4442610178836920467C
:1021D00053B1FEF74EFE2068B0F8441009043FF5F5
:1021E000AFAE0020BDE8F09FFEF763FDF3E7704758
:1021F0007047FEF7ABBC30B593B028216846FDF7B9
:10220000BAFF14210AA8FDF7B6FF002401200F949D
:1022100010941194010412948DE8130004900005A9
:10222000CDE90810022507956846FFF7EFF80F2063
:10223000CDE90A056802CDE90C4001210AA80E94F7
:10224000FFF718F812200F90680311900002129007
:102250000FA8FEF799FF13B030BD00000D480168CC
:1022600041F00101016041680B4A11404160016881
:102270000A4A11400160016821F48021016041682F
:1022800021F4FE0141604FF41F0181600449C00345
:1022900008607047001002400000FFF8FFFFF6FEE4
:1022A00008ED00E02DE9F041D0F8C032D0F8B822B6
:1022B000CAB101EB810400EB84040025E6693EB15C
:1022C00003EB41139B6BB6FBF3F703FB176323B1DF
:1022D000C2F814520020BDE8F08100231A46E561DF
:1022E00000F07DFCF6E70220F5E770B50546D0F872
:1022F000B84200F07AFBC4F80C02D5F8B80248B135
:10230000D5F8BC12D4F80402CA6804F503719047EA
:10231000002070BD022070BD70B5044600268121EA
:1023200000F0B6FA002501212046E56200F0B0FA7F
:1023300082212046C4F86C5100F0AAFA2564D4F832
:10234000B80248B1D4F8BC0204F52E744068804746
:10235000206800F014FE2560304670BD10B5D0E94D
:10236000AE4159B194F80002FF2807D08B6894F869
:10237000012221469847FF2084F80002002010BD6A
:102380000A2101800048704780000020432101801D
:1023900000487047D000002043210180004870476A
:1023A0008C00002043210180004870471401002068
:1023B0002DE9F04104460026007C4FF4007701250A
:1023C00090B3402302228121204600F061FB40238C
:1023D000E56202220121204600F05AFB0823032275
:1023E00082212046C4F86C5100F052FB4FF4077074
:1023F000256400F0C5FDC4F8B802F8B10546D4F86C
:10240000BC02006880470020C5F81402C5F8180215
:10241000207CD5F8042298B140230121204600F009
:1024200043FB3046BDE8F081FFE73B4602228121B5
:10243000204600F02DFB3B46E562CAE70126F0E7A7
:102440003B46EAE710B5D0F8B81269B1027C002A21
:10245000D1F8042205D04023012100F025FB002003
:1024600010BD4FF40073F7E7022010BD02460220B2
:10247000002902D00020C2F8BC127047D0F8B80280
:10248000C0F8041200207047D0F8B802C0F810223B
:10249000C0F80812002070472DE9FC410546D0F82D
:1024A000B87200208DF80000ADF8040006460878E8
:1024B0000C4610F0600121D020293BD1E288AAB15E
:1024C0000006607807D5D5F8BC128B683946984766
:1024D000E288394626E087F80002A07987F80102F1
:1024E000E2883946284600F06AF828E0D5F8BC12A0
:1024F000607800228B682146984720E0607820B100
:102500000A2809D00B2815D110E095F89C02032861
:1025100010D1022201A905E095F89C02032809D1F7
:1025200001226946284600F064F808E095F89C020C
:10253000032804D02146284600F036F8022630460B
:10254000BDE8FC8110B5D0F8B812A1B1D1F81422C1
:102550000AB1012010BD0122C1F81422D1F81022C5
:102560000263B1F8102293B2D1F80822812100F061
:1025700036FB002010BD022010BD10B5D0F8B422EB
:1025800052689047002010BD134610B50A4600213E
:1025900000F08AFA002010BD134610B50A4600214B
:1025A00000F01DFB002010BD10B50446802100F096
:1025B000FBFA2046BDE81040002100F0F5BA10B546
:1025C0000323C0F85C21C0F89432C0F860211346A0
:1025D0000A46002100F068FA002010BD10B5052160
:1025E0000023C0F894121A46194600F05DFA002044
:1025F00010BD10B50223C261C0F8943202621346C6
:102600000A46002100F0EBFA002010BD10B50421AD
:102610000023C0F894121A46194600F0E0FA002090
:1026200010BD000010B50A46024903A000F0E2F810
:10263000004810BDA809002043444320436F6E6644
:102640006967000012200880004870472C000020B5
:1026500010B50A46024903A000F0CCF8004810BDAE
:10266000A809002043444320496E74657266616383
:102670006500000004200880004870472800002002
:1026800010B50A46024903A000F0B4F8004810BD96
:10269000A809002053544D6963726F656C656374BB
:1026A000726F6E696373000010B50A46024903A099
:1026B00000F0A0F8004810BDA809002053544D3385
:1026C00032205669727475616C20436F6D506F7261
:1026D0007400000010B51A2008800A480168001D27
:1026E0000468001D0068081809D008220649FFF791
:1026F00033F80549042210312046FFF72DF802482F
:10270000801E10BDE8F7FF1F42000020F8B5044608
:102710000020ADF8000048880D46010A082948D27B
:10272000DFE801F04704091747473C45D4F8B012E9
:10273000207C0A6819E0207C02260028D4F8B40224
:1027400005D0C16A68468847014646703EE0816A06
:10275000F8E7C0B206282CD2DFE800F0030A101414
:10276000181CD4F8B002426805E0694690471CE0A6
:10277000D4F8B0028268E2B1207CF6E7D4F8B00267
:10278000C268F8E7D4F8B0020269F4E7D4F8B002FE
:102790004269F0E7D4F8B0028269ECE7207C40B9E6
:1027A000D4F8B402416B6846884701460EE0207CAD
:1027B00020B129462046FFF7F7FEF8BDD4F8B40251
:1027C000016B68468847014607204870BDF8000045
:1027D00048B1EA8852B1824200D90246ADF80020E1
:1027E0002046FFF706FFE8880028E6D12046FFF7DD
:1027F0000DFFF8BD70B5002300281ED0044600254B
:1028000002E06D1CEDB2641C2678002EF9D1022482
:1028100004EB450414801278CA545B1C0322CA548A
:1028200000245B1C06E0CA545B1CDAB28C54521CB8
:10283000D3B2401C0278002AF5D170BD01004FF0E0
:10284000000004D0012901D0022901D002207047E4
:102850000120704710B580B1D0F8B43213B1002315
:10286000C0F8B43209B1C0F8B012012180F89C124E
:10287000027000F0BFF8002010BD022010BD10B59E
:10288000D0F8C002FEF748FABDE81040FFF7D6BF07
:1028900010B5D0F8C002FEF71BFABDE81040FFF7F4
:1028A000CDBF2DE9F0411746044651B1D4F8B4022A
:1028B00042691AB194F89C02032851D00220BDE865
:1028C000F081D4F89432002504F11400022B03D0D7
:1028D000042B3AD0C3B33CE0D0E903639E4207D94E
:1028E000F11AC1608AB239462046FFF755FE12E060
:1028F0008068B0FBF3F103FB110199B9984211D341
:10290000D4F8981288420DD2002211462046FFF7D3
:1029100043FEC4F8985200231A461946204600F098
:10292000C3F816E0D4F8B402C16829B194F89C0247
:10293000032801D1204688478021204600F034F941
:102940002046FFF74BFE04E0FFE78021204600F021
:102950002BF994F8A002012804D184F8A05201E0D8
:10296000204690470020AAE770B51546044649B1B5
:10297000D4F8B40282691AB194F89C02032830D0CA
:10298000022070BDD4F8941204F5AA70032902D075
:1029900005291ED027E0D0E903218A420BD9531A1A
:1029A000C3600846834200D303469AB229462046B4
:1029B000FFF7EAFD17E0D4F8B402016929B194F8F1
:1029C0009C02032801D1204688472046FFF71EFEBF
:1029D00009E000200146C4F89402204600F0E4F823
:1029E00001E020469047002070BDD0F8C002FEF7FD
:1029F000BFB9000010B504461C481D49C0F8684224
:102A0000C4F8C002016008214160022181600021F8
:102A10008161C1610162FEF7CDFA08B1FDF798FF4F
:102A20000022D4F8C0021823114604F53074FEF7D2
:102A300025F95823002280212068FEF71FF9C023C2
:102A4000002281212068FEF719F94FF488730022D3
:102A500001212068FEF712F94FF4807300228221D1
:102A60002068FEF70BF9002010BD00003C07002095
:102A7000005C00400A06D0F8C00201F07F0100EBC4
:102A8000411002D590F82A00704790F82A0170474B
:102A900010B51C461346D0F8C0022246FEF76FF967
:102AA000BDE81040FFF7CABE10B5D0F8C002FEF76F
:102AB00094F9BDE81040FFF7C1BE70B5002204468E
:102AC00040231146FFF7E4FF40260125C4F8646166
:102AD0003346002280212046C4F85851FFF7D8FF22
:102AE0006662A56184F89C520020C4F8940260607C
:102AF000C4F8A402D4F8B80228B1D4F8B402002172
:102B0000426820469047002070BD90F89C1204292E
:102B100003D190F89D1280F89C120020704710B5E8
:102B200090F89C12032904D1D0F8B412C96901B1FC
:102B30008847002010BD01740020704710B5D0F800
:102B4000C002FEF7DAFABDE81040FFF777BE70B5B5
:102B5000044600F52A70054600F04AF80120C4F842
:102B60009402B4F8AE02C4F8980294F8A80210F0E7
:102B70001F010AD001290DD0022910D000F08001D8
:102B8000204600F011F8002070BD2946204600F0D4
:102B90009EF8F8E72946204600F0CAF9F3E72946EF
:102BA000204600F01DF9EEE710B5D0F8C002FEF7A0
:102BB0002BF9BDE81040FFF741BE10B5D0F8C002B8
:102BC000FEF7B6FABDE81040FFF738BE90F89C1249
:102BD00080F89D12042180F89C120020704710B5E7
:102BE000D0F8C002FEF745F9BDE81040FFF726BE59
:102BF0000A7802704A7842708A78CB7802EB032216
:102C000042800A794B7902EB032282808A79C97962
:102C100002EB0121C18070470246002011B1C2F8C9
:102C2000B41270470220704710B5D0F8B4220224C5
:102C30001AB11268904700B90024204610BD000068
:102C400070B50E461E4D897804462970012931D889
:102C500094F89C0202280BD003280FD0314620465E
:102C6000FFF7A2FC29782046BDE87040FFF785BC3D
:102C7000D9B10320616084F89C0209E071B16068F9
:102C8000884212D0C1B22046FFF777FC29786160F4
:102C90002046FFF7C9FF02280CD006E0022084F886
:102CA0009C0220466160FFF768FC2046BDE870404A
:102CB000FFF7ACBC31462046BDE87040FFF774BC5E
:102CC0007C00002010B5FFF778FF002010BD2DE933
:102CD000F0410A78002612F0600208D0202A01D0C4
:102CE000402A70D1D0F8B422926890476DE04B78BA
:102CF000002201250A2B66D2DFE803F0405D65570C
:102D0000650805652C29FFF701FD5EE0044688880B
:102D1000D8B9C888C8B94888802816D200F07F077B
:102D200094F89C02032810D084F89E7239462046FD
:102D3000FFF704FF2046FFF769FC1FB1022084F86B
:102D40009C0242E084F89C523FE020463BE0FFF7C3
:102D500077FF3AE0CB88012B35D190F89C32012BDC
:102D600004D0022B02D0032B2DD104E0826001227B
:102D700000F1080116E00122011D13E090F89C22E9
:102D8000012A03D0022A01D0032A1CD1CA88022AB0
:102D900019D1C560D0F8A41209B10321C160022283
:102DA00000F10C01FFF725FC0FE0498801290CD147
:102DB000C0F8A45211E090F89C32012B08D0022BED
:102DC00006D0032B04D0FFF7EFFB3046BDE8F081BF
:102DD00049880129F9D1C0F8A422FFF717FCF4E7CC
:102DE0002DE9F0410A46044610780027097910F0D1
:102DF00060030AD0202B01D0402B50D1D4F8B4026C
:102E000011468368204698478FE0C0F3411001289F
:102E100006D05078D0B301282AD003283FD107E04C
:102E2000D4F8B402114683682046BDE8F041184743
:102E300094F89C02022802D0032872D10AE071B3F0
:102E400080296ED02046FFF7AFFE80212046FFF795
:102E5000ABFE6AE0508838B931B1802904D0D088FF
:102E600010B92046FFF7A0FE2046FFF7CFFB5CE03D
:102E700094F89C020228E2D0032852D1508898BBD3
:102E80004806F1D02046FFF7FAFCEDE7FFE794F89B
:102E90009C020026022803D0032842D112E040E021
:102EA00009B180293DD1080601F07F0000EB8000C8
:102EB00004EB800101D5143101E001F5AA71022271
:102EC0000E602AE0080601F00F0000EB800004EB22
:102ED00080000AD5806920B301F07F0000EB8000FC
:102EE00004EB800514350BE01FE0D0F85801C0B1A9
:102EF00001F07F0000EB800004EB800505F5AA756A
:102F000041B1802906D02046FFF7B4FD10B1012061
:102F1000286000E02E60022229462046FFF769FB68
:102F200003E011462046FFF73FFB3846BDE8F0813D
:102F300070B5054608780C4610F0600003D02028D4
:102F400001D0402816D195F89C02012803D0022810
:102F500001D003280ED1207901280BD8D5F8B4026E
:102F6000826828469047E188014306D12846FFF74A
:102F70004DFB02E02846FFF717FB002070BD7047AD
:102F8000004870471C0500202DE9F0470C784FF0F1
:102F9000000C30F8243048F68F121340CA78002A0B
:102FA0007DD0012A7CD0022A03D0032A79D04FF0A9
:102FB000010C48F28002134320F824300D7830F8D9
:102FC000254048F68F731C402C43144320F82540BD
:102FD0000F7B48F6BF744BF68F7948F2C0054CF270
:102FE0008006EFB391F80080C24630F8287048F2AE
:102FF00080181F4047EA080720F82A70B0F8507080
:1030000091F80080074407EB0817B1F8088028F012
:103010000108A7F80084B0F8507091F800800744C8
:1030200007EB0817B1F80A8028F00108A7F8088410
:103030004F7891F80080002F30F828704FEA47470A
:103040007ED0002F05DA30F828701F40374320F873
:1030500028700F7830F827805FEA486809D500E0CB
:1030600033E030F8278008EA030848EA050820F82A
:1030700027800F7830F827501D40354320F827501F
:10308000CB780D78012B30F8253003EA040301D00A
:1030900083F02003134320F825300B7802E00BE087
:1030A00010E00CE030F8231001EA0901114320F888
:1030B00023106046BDE8F08743F4007379E743F4DA
:1030C000C06376E743F4806373E74F7827B3B0F8C3
:1030D00050600F78064406EB0716CF8827F00107EB
:1030E000A6F800740F7830F82760760605D530F81A
:1030F00027601E402E4320F82760CB78012B06D096
:103100000B7830F82310214081F02001CEE70B78B6
:1031100030F823102140C9E7B0F850400D7804443E
:1031200004EB0514CD8825F00105A4F80854B0F887
:1031300050400D78044404EB051404F20C4400E004
:1031400030E00D6955B13E2D10D86F08ED0700D065
:103150007F1C4FF6FF7505EA87250FE0258825F4CB
:10316000F8452580258845F4004507E06F09ED0600
:1031700000D17F1E4FF4004545EA872525800D7854
:1031800030F82540640405D530F825401C40344310
:1031900020F825400B7830F8231001EA090181F46A
:1031A000405183E7002F05DA30F828701F4037437D
:1031B00020F828700E7830F826707F0605D530F894
:1031C00026701F402F4320F826700F7830F82760B4
:1031D0001E402E4320F827600D7830F8253003EA92
:1031E000090383F44053134320F825308FE7002070
:1031F00070472DE9F04391F80C804F780A7848F633
:10320000BF7C4BF68F7948F2800348F2C0054CF240
:10321000800648F68F74B8F1000F28D0002F30F8E0
:1032200022704FEA474748D0002F05DA30F8227065
:103230002740374320F822700A7830F822707F0642
:1032400005D530F8227027402F4320F822700D78E2
:1032500030F825202240324320F825200C7830F821
:10326000242002EA0C021A4320F824201AE07FB13D
:1032700030F82260760605D530F8226026402E43CD
:1032800020F822600A7830F8221001EA0C010EE0E2
:1032900030F822506D0405D530F8225025403543D2
:1032A00020F822500A7830F8221001EA0901194367
:1032B00020F822100020BDE8F083002F05DA30F856
:1032C00022702740374320F822700A7830F82260B5
:1032D000760605D530F8226026402E4320F822607D
:1032E0000E7830F8262022402A4320F826200C7839
:1032F00030F8242002EA09021A4320F82420C1E70A
:10330000002070470020704700B50121A0F8401050
:103310000021A0F84010A0F84410A0F8501000F0D0
:103320002EF9002000BD30F8401F21F43F410180FC
:10333000002070470020704730B50A7BB2BB4A7846
:1033400048F68F7548F28004C2B10B7830F823201C
:10335000520607D530F823202A4048F2C0052A43F8
:1033600020F82320CA78012A20D00A7830F82210C9
:1033700048F6BF73194081F0200114E00A7830F854
:1033800022305B0407D530F822302B404CF2800508
:103390002B4320F822300A7830F822104BF68F7336
:1033A000194081F44051214320F82210002030BD03
:1033B00010B54A780978002A48F2800330F82120B5
:1033C00005D048F6BF74224082F0100204E04BF6AC
:1033D0008F74224082F480521A4320F8212000206A
:1033E00010BDF0B50E46054691F801C00022097BDC
:1033F0003469B06948F28007BCF1010F04D0A042E3
:103400004FD9001BB0614EE0A04202D9001BB06151
:1034100001E00446B26169B1307835F82010490600
:10342000B5F85010294401EB001012D5A0F80C4457
:10343000728911E0A3B2F2882846716900F0CEF8D3
:10344000B5F850003178284400EB0110A0F804448E
:103450001EE0A0F804443289A3B22846716900F046
:10346000BDF8707848F68F7110B1012807D00FE0D1
:10347000327835F82200084048F2C00105E0327881
:1034800035F8220008404CF28001084325F822005C
:10349000317835F8210048F6BF72104080F03000D6
:1034A00068E00446B2614FF6FF724FF4004381B307
:1034B000BCF1000F15D027E0018821F4F84101800C
:1034C000018841F400410AE03E2C3ED86108E30740
:1034D00000D0491C02EA812101E043EA81210180F8
:1034E00040E0B5F850003178284400EB011000F2BC
:1034F00004407CB13E2C15D861085FEAC47C00D042
:10350000491C02EA81210180707810B1012821D084
:1035100028E00FE0018821F4F8410180018841F49E
:103520000041F0E761095FEAC46C00D1491E43EA3B
:103530008121E8E7B5F850003178284400EB01100C
:1035400000F20C40002CBFD1B6E76109E206C4D1FD
:10355000491EC2E7B5F850104819317800EB011048
:10356000A0F80C44317835F821004BF68F721040EA
:1035700080F44050384325F821000020F0BD30F899
:10358000401F41F43F410180002070470148FDF792
:1035900085BC00003C070020B0F8440070470000E4
:1035A00010B500EB42005C0800F5806009D000BF58
:1035B00030F8042B01F8012B120A01F8012B641ECC
:1035C000F6D1DA0701D00088087010BD00207047DE
:1035D00011B98021A0F84C100020704710B55B1C79
:1035E00000EB42005B0800F5806009D011F8012B68
:1035F00011F8014B42EA042220F8042B5B1EF5D19E
:1036000010BDFEE70FB4054B10B503A9044A02989C
:1036100000F002F910BC5DF814FB00005D3F0008EB
:10362000080000200FB41CB50246002007AC00299A
:103630000BD0491ECDE90021054B6A46214606986C
:1036400000F0EAF8009A002111701CBC5DF814FB30
:10365000473F00080907090E002804DB00F1E020BD
:1036600080F80014704700F00F0000F1E02080F8AF
:10367000141D704702E008C8121F08C1002AFAD1C1
:1036800070477047002001E001C1121F002AFBD1E2
:10369000704700002DE9FF5F82B00021DDE90430B2
:1036A000020DDDF840B0034318D044F61050A2F2EA
:1036B000FF3242431514119801281FD0A5EB0B00CF
:1036C000401C5FEA000A4FF000064E4FDFF83891C9
:1036D000B046504615D5CAF1000413E011980124F4
:1036E0004AA3012801D16FEA0B010298119AC0E99F
:1036F0000031C0E9024206B0BDE8F09FCBF1000006
:10370000DFE704460021404A491842EB0450CDE966
:10371000001012E0E00707D032463B4640464946DB
:10372000FCF70EFF8046894632463B461046194656
:10373000FCF706FF06460F466410002CEAD1DDE9CF
:103740000401DDE90023BAF1000F06DAFCF7F8FE08
:1037500042464B46FCF7F4FE05E0FCF763FF4246A9
:103760004B46FCF75FFF04460E460022284BFCF751
:10377000E1FF03D84FF0FF30014607E00022254B60
:1037800020463146FCF735FEFCF7BBFF102409E06C
:10379000002C0ADB0A220023FCF7C3FD039B303216
:1037A0001A55641E50EA0102F2D1641C039AC4F156
:1037B00011031444119A012A03D0012208430DD1A8
:1037C0000AE0084304D000204FF0110B119072E77B
:1037D000A3EB0B056D1E0DE05B4504DD4FF0000211
:1037E00005F1010504E003DA4FF00002A5F101053F
:1037F000002AECD002981199C0E90231C0E90045D5
:1038000079E70000000014400000F03F30000000A5
:103810000000F0430000E03F2DE9FF4F95B09B46CC
:103820008946064600250FE2252877D10024274641
:10383000F84A0121059400E0044316F8013F203BBB
:1038400001FA03F01042F7D130782A2811D06FF036
:103850002F033078A0F13002092A16D8059A44F0D7
:10386000020402EB820203EB42021044761C059034
:10387000EFE759F8042B0592002A03DA504244F48A
:103880000054059044F00204761C30782E2816D19E
:1038900016F8010F44F004042A280DD06FF02F020F
:1038A0003078A0F13003092B09D807EB870302EB2E
:1038B0004303C718761CF3E759F8047B761C30786D
:1038C0006C280FD006DC4C2817D068280DD06A2849
:1038D00014D104E0742810D07A280FD10DE044F4FC
:1038E00000140AE044F4801401E044F440147278B7
:1038F000824202D104F58014761C761C307866284A
:103900000BD013DC582877D009DC002875D0452867
:10391000F6D04628F4D047281AD19DE118E0632854
:1039200035D0642879D0652812D195E1702873D0FC
:1039300008DC6728F1D069286FD06E280DD06F2879
:1039400006D1B5E073282CD0752875D0782874D0AE
:103950005A46179990476D1C75E1C4F3025002282E
:1039600009D003280DD0D9F8001004280DD00D601F
:1039700009F1040967E1D9F80010EA17C1E900521A
:10398000F6E7D9F800100D80F2E70D70F0E719F8AE
:10399000041B8DF8001000208DF80100EA4601207C
:1039A00003E059F804AB4FF0FF3061074FF000011E
:1039B00002D40DE008F101018846B9420FDA8045D2
:1039C000F8DB1AF808100029F4D108E008F1010129
:1039D00088468142FADB1AF808100029F6D10598CA
:1039E0005B46A0EB080721463846179A00F094FA88
:1039F000284400EB080507E04DE029E10DE01AF846
:103A0000010B5A4617999047B8F10108F7D25B4667
:103A100021463846179A13E142E00A220092C4F385
:103A200002524FF0000A022A08D059F804CB032AA8
:103A30004FEAEC710AD00DE029E02AE009F1070114
:103A400021F00702F2E802C1914609E00FFA8CFC6E
:103A50004FEAEC71042A03D14FFA8CFC4FEAEC7167
:103A6000002907DA0A460021DCF1000C61EB0201B3
:103A70002D2202E0220504D52B228DF804200122FC
:103A800003E0E20701D02022F7E7904659E00A213F
:103A900002E010220DE010214FF0000A00910BE02F
:103AA00010224FF0000A44F004040827009203E0BB
:103AB00008224FF0000A0092C4F30252022A05D0F5
:103AC00059F804CB0021032A08D009E009F10701C5
:103AD00021F00702F2E802C1914605E01FFA8CFCD2
:103AE000042A01D10CF0FF0C4FF00008220728D562
:103AF000702806D0009B83F0100353EA0A0305D018
:103B00000EE040228DF80420012208E05CEA010268
:103B100006D030228DF804208DF805000222904650
:103B2000009B83F0080353EA0A030AD15CEA01020E
:103B300001D1620705D530228DF804204FF001082D
:103B40007F1E582804D034A003900EA802900DE0E8
:103B500036A0F9E753466046009AFCF7E2FB84463C
:103B60000398825C0298401E029002705CEA010099
:103B7000F0D1029806A9081A00F1200A600702D5C0
:103B800024F4803400E00127574502DDA7EB0A004A
:103B900000E0002000EB0A01009005984144401A23
:103BA0000590E00306D45B462146179A059800F07D
:103BB000B3F90544002706E001A85A46C05D1799ED
:103BC00090476D1C7F1C4745F6DBE0030CD55B4638
:103BD0002146179A059800F09FF9054404E030202B
:103BE0005A46179990476D1C0099481E009000296D
:103BF000F5DC08E0029802995A460078491C0291C7
:103C0000179990476D1CBAF10001AAF1010AF1DC85
:103C100065E1000009280100303132333435363790
:103C20003839616263646566000000003031323308
:103C300034353637383941424344454600000000A8
:103C400000F058F90544761C307800287FF4ECAD7C
:103C500019B02846BDE8F08F620700D4062709F1A5
:103C6000070222F0070CFCE80223E14603F00048BB
:103C70005FEA080C02D00FF2702C0DE05FEA045CE2
:103C800002D50FF2682C07E05FEAC47C02D00FF285
:103C9000602C01E0AFF2700C4FF0FF3823F00043CE
:103CA000CDF850C065280CD006DC452809D0462840
:103CB0001DD047283DD13DE0662818D067287ED129
:103CC00038E00021112F01DB112000E0781CCDE944
:103CD000000106A90EA8FFF7DDFCDDE90F010E9A31
:103CE00003910021009207F1010A04914DE04FF089
:103CF00000400097CDE9011006A90EA8FFF7CAFC05
:103D0000DDE90F0203920E9B11990022DDF80CA051
:103D10000093049211B9791C00EB010AB7EB0A0079
:103D200004D4C0F1FF3007F1010A0490AAEB0700A8
:103D3000019044E0012F00DA01270021112F01DD5D
:103D4000112000E03846CDE9000106A90EA8FFF7D2
:103D5000A1FCDDE90F010E9A03910021049100926C
:103D6000BA4621070CD40399514500DA8A46BAF1C4
:103D7000010F05DD009AAAF10101515C302908D03C
:103D8000B84202DA10F1040F06DA0121CDE9011080
:103D900015E0AAF10101E9E7002805DC04990144D6
:103DA0000491AAEB000102E0411C514500DD8A4666
:103DB0000499401A401C01904FF0004002902007E7
:103DC00004D40198504501DBCDF8048000208DF823
:103DD0004F0002980DF14F07B0F1004F25D02B2076
:103DE0000E9002984FF0020800280CDA4042029030
:103DF0002D200E9007E00A210298FCF77CFA303162
:103E0000029007F8011DB8F10001A8F10108F2DCE9
:103E100002980028EFD1791E0E980870307800F0D3
:103E2000200040F0450007F8020D12A8C01B00F169
:103E300007081498007800B1012000EB0A010198EE
:103E400001EBE07105984144401A401E0590E003E3
:103E500006D45B462146179A059800F05DF80544A4
:103E60001498007818B15A46179990476D1CE003D2
:103E700024D55B462146179A059800F04DF8054475
:103E80001CE00498002807DBDDE90301884203DD1C
:103E90000098405C179901E0179930205A469047E6
:103EA000049805F10105401C04900198401E019002
:103EB00004D12E205A46179990476D1CBAF1000183
:103EC000AAF1010ADDDC05E017F8010B5A46179943
:103ED00090476D1CB8F10001A8F10108F4DC5B46C5
:103EE0002146179A0598ABE62D0000002B00000034
:103EF000200000002DE9F041044600251E4617462B
:103F0000880404D405E039462020B0476D1C641EA7
:103F1000F9D52846BDE8F0812DE9F0410446002599
:103F20001E469046C80301D5302700E020278804AC
:103F300004D505E041463846B0476D1C641EF9D5EE
:103F40002846BDE8F0814A68002A06D00A68531C5A
:103F50000B6010704868401E48607047054909684A
:103F6000C90105D54FF060410A68002AFCD00870ED
:103F700070470000FCED00E096B0FCF7EFFDFEF7A7
:103F80003AF9FDF7B5FEFDF78BFEFDF7A3FFFDF750
:103F9000E9FDFDF7EDFEFDF737FF474D444C2846A0
:103FA000424E4C342D7808364049414A414BAC5181
:103FB0000578341D2B5104780B1DE45805786FF3F8
:103FC0000F0444F06404EC500378CB58047843F0B9
:103FD00002030B510378CB58047843F008030B51CC
:103FE0000378CB58007843F001030B50906840F001
:103FF00001009060906840F4A00090602F48016834
:1040000041F001010160DFF8B89041F21111D9F8D7
:1040100020200A43C9F82020D9F8001041F00101FE
:10402000C9F80010274D4FF0000800270126C5F8F9
:10403000048028780028FCD085F800801D4A0020E4
:1040400032F81010401C6428FADB6420B1FBF0F455
:1040500040F6E4406043FCF736F91B49FCF7F5F8FD
:1040600001463846FCF799F80746C9F8344030460F
:10407000761C6428DDDB154938466C60FCF7E5F8F2
:10408000FCF726F9CDE9000111A2502102A8FFF7A3
:10409000C9FA02A8FCF77AF881B202A8FCF740FC42
:1040A00002A90EA0FFF7AEFABFE700000000024031
:1040B0000024014090010020E0400008000400407E
:1040C000000800400000002000F07F450000C842CA
:1040D00020256620206D56200D000000257300006D
:1040E000081C3044586C80000000000404040000E8
:1040F00008000000080000000000000000010203AA
:1041000004060708090000002841000800000020FC
:104110009001000084080008E84100089001002098
:10412000E815000084360008C11345261B087504F5
:104130001A81041AA9041AD5041A25041A5104175D
:1041400004030904120114020202164083044057BA
:10415000260201020301031A1A0313E5081B08E1F2
:10416000041ADD041309091A082F1182105324F4CC
:10417000130A0632022A401C1C090243571125C0AB
:104180003209041B01020B1305241610010524013A
:104190001009010424020205240617010705820301
:1041A000081C1009048D320A1D07050102432C0763
:1041B0000581070938442A40072A8107112B09077E
:1041C000440A3B044413B1231B08190413992442E5
:1041D000081A5D0C13A5221B08EB04C11A99182AB2
:0841E0008D1C19041A81040072
:04000005080000ED02
:00000001FF
